:02000002B0004C
:1040000000400B00E4720B00000006000D000502EA
:084010000401A60F00000000EE
:04401800886D0B00A4
:10401C0009480A49884208B505D0094A824202D0AB
:10402C00121A02F0E3FC0748074A0021121A02F0A8
:10403C0005FD014808BD00BFD0E5032038720B0018
:10404C0054E6032054E60320F1E7032070B5074E35
:10405C00074C02F043FCA41BA4080025AC4200D181
:10406C0070BD56F8043B98470135F7E7E0710B003B
:10407C0004720B0000F064B808B500F06BF8BDE8F2
:10408C00084002F0E3BB00F023BB00F021BB00F0C2
:10409C0027BB000008B5034A03490C2000F04CFA7A
:1040AC00FEE700BFE5430B009C6D0B000078B0FAF7
:1040BC0080F0400970470123037070477047006A15
:1040CC000368DB68184700000A4B10B50446036010
:1040DC0001F07AFA214601F0B2FC02F06FFB02F01B
:1040EC0061FB2046044B40F8043B01F043FB2046A7
:1040FC0010BD00BFF86D0B00E06D0B0010B5044651
:10410C00FFF7E2FF20462421FFF7C1FF204610BD38
:10411C000EB400B58CB00DAA4FF0200C52F8041B55
:10412C000392CDE900120023016804AA1E20CDE9F8
:10413C0004C300F009FA0CB05DF804EB03B070474F
:10414C0070470000024B1868421C1A60704700BF91
:10415C0058E6032010B5234C88B000F045F92368CD
:10416C00C01A214BD3E9002390424FF0000272EBAE
:10417C00030331DB00F038F92060FFF7E3FF1B4944
:10418C00024604A802F018FA00F02AFA30B3184BD1
:10419C0018491B788DF80030049A09683C2302A852
:1041AC0000F0BCFC039C7CB16368013B63605BB9B1
:1041BC00236820469B689847A368013BA3601BB902
:1041CC0023682046DB689847049A0B490B48FFF795
:1041DC009FFF04A802F04EF908B010BD049A0849DC
:1041EC00F4E700BF5CE60320D8E50320B16D0B00BB
:1041FC0054E60320D0E50320B46D0B00CCE603207D
:10420C00C16D0B0070B5D0E900531426044606FBB3
:10421C000356AE4204D0284602F02CF91435F8E7C8
:10422C00206800F05DFA204670BD8842F8B504465F
:10423C000D46164616D9904215D2A2F11406751ADF
:10424C00A1F114072C44B7421CD02CB131462046A6
:10425C0002F08CF9337C2374304602F00BF9143ED7
:10426C00143CF0E70ED0B5420CD02CB129462046B8
:10427C0002F07CF92B7C2374284602F0FBF81435F1
:10428C001434F0E7F8BD2DE9F0410023C0E9003308
:10429C0083604F689F4204460E4623DD4FF014089E
:1042AC0008FB07F000F014FA0546D8B1D4E9001267
:1042BC0008FB0212FFF7B9FF206800F011FA256025
:1042CC00A760D6E9007308FB0378B84508D03946D7
:1042DC00284602F065F93B7C2B7414371435F4E74F
:1042EC00736863602046BDE8F081000070B5214B17
:1042FC008CB000241C702146012000F045F9CDE95A
:10430C000044029402F05AFA1B4C0546694603A875
:10431C00FFF7B9FF264603A906A8FFF7B4FF174B12
:10432C0046F8043B06A909A8FFF7ADFF09AA1E2110
:10433C00304601F067FC09A8FFF764FF06A8FFF7F9
:10434C0061FF0F4B2360256203A8FFF75BFF0D4B4A
:10435C00236002F033FA4FF4165102F01FFA01F009
:10436C0033F9214601F024FB6846FFF74BFF0CB0F4
:10437C0070BD00BF54E6032060E60320E06D0B0027
:10438C005C6F0B00F86D0B0008B5024B1B685B6C87
:10439C00019308BD4802030008B5024B1B689B6CD7
:1043AC00019308BD4802030008B5024B1B68DB6C87
:1043BC00019308BD4802030008B5024B1B685B6DF6
:1043CC00019308BD4802030008B5024B1B685B68EB
:1043DC00019308BD1802030008B5024B1B68DB688B
:1043EC00019308BD1802030008B5024B1B685B69FA
:1043FC00019308BD1802030008B5024B1B685B69EA
:10440C00019308BD6402030008B5024B1B689B684E
:10441C00019308BD6802030008B5024B1B68DB68FA
:10442C00019308BD6802030008B5024B1B689B682A
:10443C00019308BD3C02030008B5024B1B68DB6806
:10444C00019308BD3C02030008B5024B1B681B69B5
:10445C00019308BD3C02030008B5024B1B685B6965
:10446C00019308BD3C02030008B5024B1B689B6915
:10447C00019308BD3C02030008B5024B1B68DB69C5
:10448C00019308BD3C02030008B5024B1B689B6AF4
:10449C00019308BD3C02030008B5024B1B68DB6AA4
:1044AC00019308BD3C02030008B5024B1B681B6C52
:1044BC00019308BD3C02030008B5024B1B681B6846
:1044CC00019308BD4C02030008B5024B1B685B68E6
:1044DC00019308BD4C02030008B5024B1B689B6896
:1044EC00019308BD4C02030008B5024B1B681B6905
:1044FC00019308BD4C02030008B5024B1B685B69B5
:10450C00019308BD4C02030008B5024B1B689B6964
:10451C00019308BD4C02030008B5024B1B68DB6914
:10452C00019308BD4C02030008B5024B1B681B6AC3
:10453C00019308BD4C02030008B5024B1B685B6B72
:10454C00019308BD6002030008B5024B1B685B6D4C
:10455C00019308BD6002030008B5024B1B68DB6EBB
:10456C00019308BD6002030008B5024B1B681B6F6A
:10457C00019308BD6002030008B5024B1B685B6821
:10458C00019308BD2002030008B5024B1B68DB6ACF
:10459C00019308BD2002030008B5024B1B68DB6CBD
:1045AC00019308BD2002030008B5024B1B685B6D2C
:1045BC00019308BD2002030008B5034B1B68D3F818
:1045CC008830019308BD00002002030008B5034B9E
:1045DC001B68D3F89430019308BD0000200203003F
:1045EC0008B5024B1B685B69019308BD44020300CC
:1045FC0008B5024B1B681B6A019308BD44020300FB
:10460C0008B5024B1B68DB6B019308BD4402030029
:10461C0008B5024B1B685B68019308BD40020300A0
:10462C0008B5024B1B689B68019308BD4002030050
:10463C0008B5024B1B68DB68019308BD4002030000
:10464C0008B5024B1B681B69019308BD40020300AF
:10465C0008B5024B1B685B69019308BD400203005F
:10466C0008B5024B1B689B69019308BD400203000F
:10467C0008B5024B1B68DB69019308BD40020300BF
:10468C0008B5024B1B681B6A019308BD400203006E
:10469C0008B5024B1B681B6B019308BD400203005D
:1046AC0008B5024B1B685B6B019308BD400203000D
:1046BC0008B5024B1B681B6C019308BD400203003C
:1046CC0008B5024B1B685B6C019308BD40020300EC
:1046DC0008B5024B1B681B68019308BD1C02030044
:1046EC0008B5024B1B685B68019308BD1C020300F4
:1046FC0008B5024B1B689B68019308BD1C020300A4
:10470C0008B5024B1B685B6A019308BD1C020300D1
:10471C0008B5024B1B68DB6A019308BD1C02030041
:10472C0008B5024B1B681B6B019308BD1C020300F0
:10473C0008B5024B1B68DB6B019308BD1C02030020
:10474C0008B5024B1B681B6C019308BD1C020300CF
:10475C0008B5024B1B685B6C019308BD1C0203007F
:10476C0010B5836804460BB902F02EF9C36898475C
:10477C00A3681BB1032221462046984720461021EE
:10478C00BDE81040FFF783BC10B58368044613B135
:10479C00032201469847204610BD10B54368013BE3
:1047AC000446436063B903689B689847A368013B60
:1047BC00A3602BB923682046DB68BDE8104018477E
:1047CC0010BD70B5D0E90053044605EB0316AE429C
:1047DC0004D0284601F04EFE1035F8E72068FFF7AC
:1047EC007FFF204670BD10B50446006808B1FFF786
:1047FC00D4FF204610BD13B50B460246D0E900018C
:10480C006C4684E8030093E8030082E8030094E814
:10481C00030083E8030002B010BD0000024800232F
:10482C000360FFF7B1BD00BF84E60320002240689F
:10483C001146FFF705BF002240681146FFF720BF65
:10484C00002240681146FFF72BBF40680022FFF79B
:10485C001FBF4068002281F00101FFF709BF002350
:10486C0040681A461946FFF7FBBE002340681A46FB
:10487C001946FFF7EDBE002240681146FFF7D0BE87
:10488C00406800220221FFF7D3BE002340681A467D
:10489C00FFF7BEBE084B10B528242246184600214F
:1048AC0002F0CCF8054B04804FF0FF32426004223A
:1048BC005A60034A1A6010BD90E6032088E6032074
:1048CC00206E0B0070470020704710B51021044675
:1048DC00FFF7DDFB204610BD08B5FFF7F6FF08BD5E
:1048EC0030B500224FF69C74026084808D888C80D9
:1048FC000C68858004600A6030BD10B50446006801
:10490C00FFF7EEFE204610BD38B5C468F4B123782D
:10491C00022B03D104F10C00FFF7EFFF656835B1F2
:10492C002846FFF731FF10212846FFF7B0FBA5689A
:10493C0035B12846FFF728FF10212846FFF7A7FBC3
:10494C0020461421BDE83840FFF7A1BB38BD0B68E9
:10495C0003604B68436013B15A6801325A60704768
:10496C0037B5044668460D46FFF7F1FF009B019AE8
:10497C0023606260002301A801930093FFF733FFCB
:10498C0035B1281DFFF72FFF08212846FFF77FFBC5
:10499C00204603B030BD826810B50AB902F014F895
:1049AC00BDE81040C368184708B5006800F1100155
:1049BC00FFF7F1FF08BD826810B50AB902F004F8E0
:1049CC00BDE81040C368184708B5006800F1100135
:1049DC00FFF7F1FF08BD000038B500230446036063
:1049EC0010200D46FFF74FFB28B10123C0E901331E
:1049FC00024B0360C5602060204638BD5C6E0B0026
:104A0C0038B5002383608B6804460D462BB1022217
:104A1C009847EB68E360AB68A360204638BD0000A4
:104A2C00F0B589B004686846FFF75AFF4FF00203EF
:104A3C00D4E84F2F002A03D1C4E8413F0029F7D115
:104A4C0025D104F10C0569462846FFF749FFBFF351
:104A5C005B8F01236370002004F10803BFF35B8FAD
:104A6C0053E8006F43E80002002AF9D1BFF35B8FD3
:104A7C006EB1FFF791FD78B129463046FFF78BFFF9
:104A8C003046FFF781FE10213046FFF700FB6846E9
:104A9C00FFF733FF09B0F0BD314602A8FFF7B0FFB6
:104AAC00E068B4F9105008B102F028F80690102014
:104ABC00ADF81C50FFF7E7FA0546E8B10027876010
:104ACC001820FFF7E0FA044688B10146876002A877
:104ADC00FFF791FE049BA268A360059B049206A9B4
:104AEC00E268E36004F110000592FFF7F9FE084B51
:104AFC00EB60084B2C60AB6006A8FFF7FEFE02A82B
:104B0C00FFF742FE002229460348FFF74DFDB7E7A9
:104B1C00B5490B00394C0B006D470B002DE9F04FDC
:104B2C008BB005469DF850A00F4690469946FFF76E
:104B3C0057FD07AE834638BB4FF62E73059005A97B
:104B4C003046ADF81830FFF7CBFE1420FFF79BFA78
:104B5C00044648B1022303700123C0E901BB437032
:104B6C0031460C30FFF7BCFE2846214640F8044B7A
:104B7C00FFF732FF3046FFF7C0FE05A8FFF7BDFE7A
:104B8C0028460BB0BDE8F08F0C2300241420CDE98F
:104B9C0008440793FFF777FA014618B1C0E90144BE
:104BAC000470447004A80391FFF716FF1E4B089382
:104BBC000820FFF768FA044610B103A9FFF7C7FEF7
:104BCC0000965FFA8AF34A46414638460994FFF745
:104BDC000FFDB8B9039B5B7803F0FF0293B94FF656
:104BEC009C7305A903A80592ADF81830FFF718FFC0
:104BFC0005A8FFF782FE05A80999FFF7B1FE06A8E4
:104C0C00FFF7F1FD03A905A8FFF7A1FE059B069A86
:104C1C002B606A60002306A806930593FFF7E3FD5B
:104C2C0004A8FFF7E0FDABE7B54C0B00012AF8B583
:104C3C00054603D10B6803600020F8BD022A10D092
:104C4C00032AF9D10468002CF6D004F11000FFF708
:104C5C0054FE2046FFF798FD18212046FFF717FA5F
:104C6C00EAE718200E68FFF70EFA044650B13146F9
:104C7C00FFF7C6FE3069B6F9147008B101F03EFFBB
:104C8C002061A7822C60D7E738B5002383608B683E
:104C9C0004460D462BB102229847EB68E360AB68E3
:104CAC00A360204638BD0000F0B589B004460D461F
:104CBC0001A81146FFF754FEA4B124B21DB1284639
:104CCC0001F01CFF054601A803A90395ADF810409F
:104CDC00FFF7A6FE03A8FFF710FE02A8FFF783FD5F
:104CEC0009B0F0BD019D0123D5E84F2F002A03D157
:104CFC00C5E8413F0029F7D1EFD12B73BFF35B8F90
:104D0C006B702B1DBFF35B8F53E8006F43E80042C1
:104D1C00002AF9D1BFF35B8F002EDED02046FFF7BF
:104D2C003BFC074660B105F10C013046FFF743FE32
:104D3C003046FFF729FD10213046FFF7A8F9CCE7E4
:104D4C00314603A8FFF7A0FF2B7B8DF81C301020F9
:104D5C00FFF799F90546D0B187601420FFF793F956
:104D6C00044678B18760014603A8FFF744FD059B14
:104D7C00A268A360069B0592E268E3609DF81C3074
:104D8C0006922374064BEB60064B2C60AB6003A8B9
:104D9C00FFF7FAFC002229460348FFF705FCC7E79A
:104DAC00D5490B00B94D0B006D470B00012A70B5AE
:104DBC00044603D10B680360002070BD022A0CD09E
:104DCC00032AF9D10468002CF6D02046FFF7DCFC4E
:104DDC0014212046FFF75BF9EEE714200E68FFF76D
:104DEC0052F9054620B13146FFF74EFF337C2B7448
:104DFC002560E1E7002240681146FFF741BC002224
:104E0C0040681146FFF74CBC40680022FFF740BCDD
:104E1C004068002281F00101FFF72ABC00234068A2
:104E2C001A461946FFF71CBC002340681A4619465F
:104E3C00FFF70EBC002240681146FFF701BC0022B0
:104E4C0040681146FFF7ECBB406800220221FFF7D7
:104E5C00EFBB002340681A46FFF7DABB024B032274
:104E6C005A60024A1A607047B8E60320786E0B004D
:104E7C00704710B518210446FFF709F9204610BDFC
:104E8C00F0B5037D062B8DB00E4600F104074FF0F4
:104E9C00000412D000F1080515F8011D0A22304655
:104EAC0001F093FAAF42044419D0002CF4D02E2117
:104EBC00304601F07BFA0444EEE72F236A4639466C
:104ECC000A208DF80040FFF797FA684601F033FE90
:104EDC0033680246DB6869463046984704462046EC
:104EEC000DB0F0BD10B5054B0446112240F8043B43
:104EFC00002101F0A3FD204610BD00BFB46E0B00D5
:104F0C000346074A10B543F8042B01F1100251F87F
:104F1C00044B43F8044B9142F9D10A781A7010BD36
:104F2C00B46E0B0010B59DF8084044EA032343EA25
:104F3C00024242EA016104234160037510BD000086
:104F4C0007B5064B0360CB7800938B784A780978C9
:104F5C00FFF7E8FF03B05DF804FB00BFB46E0B0075
:104F6C0000F11003012213F8101C0129184608D176
:104F7C0053F8041C02EB4102013A03F11003F2D185
:104F8C007047022904BF53F8041C5218F4E70EB4FE
:104F9C00F0B588B000AF07F13405102155F8042B9B
:104FAC007A6004462B467818FD60FFF7A9FB0F28A2
:104FBC007A681AD900F1080323F007036E46ADEBAB
:104FCC00030D411C2B466846FD60FFF799FB021E42
:104FDC0004DD236869469B6820469847B546203710
:104FEC00BD46BDE8F04003B070470028F7D02368F9
:104FFC0002469B6807F1100120469847EFE738B549
:10500C000B6803604D6843689D42044608D015B197
:10501C006B6801336B60606808B1FFF7BEFB6560BD
:10502C0038BD07B503688DF807109B6801220DF198
:10503C000701984703B05DF804FB0B4611460022AC
:10504C0010B5C0E90022044683600BB9204610BDA0
:10505C00FFF7D5FFFAE78368EBB11A78032A1AD861
:10506C00DFE802F00417021B0520704702685B683A
:10507C005268D05C2D2812D0A0F13003092B0ED928
:10508C0074280ED066280CD0A0F16E0358425841FB
:10509C00704706207047002070470420704703209B
:1050AC0070470220704710B50446FFF7D4FF022862
:1050BC000ED0C31EDBB2012B14D82268A368506833
:1050CC005B68BDE810400A220021184401F0E6BDDF
:1050DC002268A36852685B68D05CA0F174035842E4
:1050EC00584110BD0020FCE738B50023C0E900335F
:1050FC0004460E48C4E90203A9B10B78032B06D071
:10510C008BB9136858684B68C35C6E2B07D0136857
:10511C004D6858688B6828445B1BA060E36011469F
:10512C002046FFF76CFF204638BD00BF236F0B00F5
:10513C0038B500250B46C0E90055C0E90255C0E959
:10514C000455044611464BB11A78012A06D103F1D5
:10515C001002DB6882604361FFF751FF204638BDC7
:10516C0010B54369044663B18068E060013B1030C0
:10517C00A0602061636113B1FFF7F2FEA060012013
:10518C0000E0184610BD10B57D210446FFF749FF1D
:10519C0001232371204610BD08B50379012B02D0E1
:1051AC00022B04D008BD2C21FFF73BFFFAE73A2174
:1051BC00FAE710B50446FFF7EFFF20467B21FFF717
:1051CC0030FF00232371204610BD000013B50446A8
:1051DC000191FFF7E1FF2368019ADB680349204640
:1051EC00984701232046237102B010BDB16D0B000E
:1051FC0013B504460191FFF7CFFF2368019ADB68D2
:10520C0003492046984701232046237102B010BD64
:10521C00C06E0B002DE9F0470D4622219046044646
:10522C00FFF7FFFEDFF8A490A8442F464745BA4687
:10523C003DD017F8016B222E06D05C2E04D03046E0
:10524C0001F0CCFB0028F1D12368AAEB05029B6886
:10525C002946204698475C212046FFF7E2FE0D2E9A
:10526C000AD8072E1CD9A6F10803052B18D8DFE89D
:10527C0003F00D0F11171315222E01D05C2E0FD138
:10528C0031462046FFF7CDFE3D46CFE76221F8E7D9
:10529C007421F6E76E21F4E76621F2E77221F0E75C
:1052AC0023683246DB68494620469847ECE7BD4206
:1052BC0005D023687A1B9B682946204698472221F3
:1052CC002046FFF7AEFEBDE8F08700BFC36E0B00B3
:1052DC0013B50446CDE90021FFF75EFF2046DDE95A
:1052EC000021FFF797FF02232046237102B010BD67
:1052FC0013B50446CDE90021FFF74EFF2046DDE94A
:10530C000021FFF787FF01232046237102B010BD57
:10531C0080680368DB6818477047084611B10B6852
:10532C005B6818477047704770477047704738B5CF
:10533C0004460D4600682E2101F0C3FB2368C31AF6
:10534C002B6023B1037803B1013023682060184629
:10535C0038BD10B50C210446FEF799FE204610BD51
:10536C0010B504210446FEF792FE204610BD10B580
:10537C0004210446FEF78BFE204610BDFFF714B83F
:10538C0008B501F0A8FBB0FA80F0400908BD7047E1
:10539C0010B50C4601F012FA844210D001F0ECFA70
:1053AC00844205D101F0E8FABDE8104001F0A1B942
:1053BC002CB1236820465B68BDE81040184710BD2F
:1053CC000B6803604B68436013B15A6801325A6032
:1053DC00704713B504460846019101F0ACFB0199E6
:1053EC000246204602B0BDE81040FFF781BF13B55E
:1053FC0004460846019101F09EFB23680199DB6885
:10540C000246204602B0BDE81040184707B50368B5
:10541C008DF80710DB6801220DF10701984703B0E6
:10542C005DF804FB0EB403B503AB002153F8042B59
:10543C00006A019300F0E7FF02B05DF804EB03B0E3
:10544C0070470A6802604A6842600022C0E9022282
:10545C0010B502618C688460CC68C4600C698A6089
:10546C00CA6004610A6110BD2DE9F74FD0E90084D0
:10547C004FF0140A00930AFB04F4184BA4101746BF
:10548C005C434546002C21DD66100AFB06F005EB5B
:10549C0000093A46B9F804B0285801915F4528BF75
:1054AC005A4601F050FB002801994FF001030BD133
:1054BC005F4503D1009A13703446E3E7FCD9A61B71
:1054CC0009F11405013EF7E7F9DBF5E7A5EB080553
:1054DC000248AD10684303B0BDE8F08FCDCCCCCC06
:1054EC007FB50369057E019103B3F9B1002600F184
:1054FC000C04039603A901A8FFF719FF0146A8B1F4
:10550C000DF10B03039A8DF80B602046FFF7ACFFEF
:10551C009DF80B3053B12368142404FB0034083479
:10552C0034F9023C002BA8BFDDB2E3E7284604B0F7
:10553C0070BD000010B5094C2378BFF35B8FDB07FF
:10554C0009D42046FEF7B2FD28B12046FEF7B3FD84
:10555C00034801F03CFA034810BD00BFC4E6032029
:10556C0033530B00E0E5032010B5094C2378BFF34F
:10557C005B8FDB0709D42046FEF798FD28B1204647
:10558C00FEF799FD034801F022FA034810BD00BF55
:10559C00C8E603209B530B00E4E5032038B5002537
:1055AC000446C0E90055C0E904558560856140F8A2
:1055BC00245FFEF7E9FEFFF7BDFFE061FFF7D4FFC4
:1055CC0025732062204638BD10B50A4C2378BFF3F2
:1055DC005B8FDB070CD42046FEF768FD40B1064814
:1055EC00FFF7DCFF2046FEF766FD044801F0EFF9FB
:1055FC00014810BDC0E60320D0E60320295B0B0058
:10560C00024A034903480023FEF7AEBF0D590B00B5
:10561C0099580B0019580B0000231A4619461846C6
:10562C00FEF7A2BF37B58D6804466846FFF7C8FE83
:10563C006A4629462046FFF77BFD01A8FFF7D3F801
:10564C00204603B030BD37B5CD6804466846FFF739
:10565C00B7FE6A4629462046FFF746FD01A8FFF72C
:10566C00C2F8204603B030BD37B50D690446684614
:10567C00FFF7A6FE6A4629462046FFF7DEFC01A886
:10568C00FFF7B1F8204603B030BD000070B58AB00A
:10569C000D46014604A8FFF7C5FF144E04A8FFF7FA
:1056AC005FFDE8B104A96846FFF7CDFF02983146CB
:1056BC00FFF766FE044610B12C1E18BF012401A88A
:1056CC00FFF791F8002CE9D004A96846FFF7CCFF4E
:1056DC006846FFF7E8FC286001A8FFF784F8DDE7CF
:1056EC0005A8FFF780F80AB070BD00BFC96E0B00AB
:1056FC0037B50C4620461349154601F0ECF950B964
:10570C0001F05CF84FF4165101F048F803B0BDE815
:10571C00304001F053B80C49204601F0DCF978B95F
:10572C004FF4165301A928460193FFF7AFFF01F080
:10573C0023F9019900F0DAFF01F01EF903B030BD36
:10574C000020FBE7CE6E0B00D56E0B0070B5D0E9D8
:10575C0000531426044606FB0356AE4205D005F151
:10576C000800FFF7F3FF1435F7E72068FEF7B8FFE2
:10577C00204670BD10B504460C30FFF7E7FF2046FD
:10578C00FFF71FF8204610BD10B5044B044640F837
:10579C00043BFFF7EFFF204610BD00BFE06D0B0090
:1057AC0010B50446FFF7F0FF20462421FEF76FFCEE
:1057BC00204610BD10B5034B03600446FFF7E4FF11
:1057CC00204610BD746F0B0010B50446FFF7F2FFB6
:1057DC0020462421FEF75BFC204610BD0022C0E9C8
:1057EC00002210B582600C6804604C6844608C68C0
:1057FC000A604A6084608A6010BD10B50368044674
:10580C001868FEF7D9FD204610BD00002DE9F04FB9
:10581C0087B0804603931C4B5B68C3F3080389462F
:10582C0016466BB9FFF7D0FE044600F12403406A1C
:10583C000593FFF7A3FD237B2BB105A8FFF7DDFF35
:10584C0007B0BDE8F08F01232373D4E900535FFA4E
:10585C0089F905EB830AAA4512D055F8047B314629
:10586C00381DFFF73DFE8145F5D33B68039A009246
:10587C00D3F808B04A46334641463846D847EAE79B
:10588C0000232373D9E700BF00ED00E02DE9F74FAB
:10589C009B461A4B5B68C3F3080380468946164641
:1058AC006BB9FFF791FE044600F12403406A0193A3
:1058BC00FFF764FD237B2BB101A8FFF79EFF03B01C
:1058CC00BDE8F08F01232373D4E90053F6B205EB46
:1058DC00830A55450ED055F8047B5946381DFFF701
:1058EC00FFFD8642F5D33B684A46DB6841463846A5
:1058FC009847EEE700232373DEE700BF00ED00E0DE
:10590C002DE9F341164B5B68C3F3080305460F46BC
:10591C001BBBFFF759FE00F124030446406A0193B8
:10592C00FFF72CFDD4E90063462406EB8308B04551
:10593C0009D101A8FFF761FFA542B4BF00200120E7
:10594C0002B0BDE8F08156F8040B39460430FFF77D
:10595C00C7FD8442A8BF0446E9E70020F0E700BF7A
:10596C0000ED00E0F8B5D0E901539D4204460E4627
:10597C000DDB6F1C002F006804DDB900FEF7B8FECC
:10598C0018B9F8BDFEF7ACFE00202060A7602768B0
:10599C00626807EB85019200A2EB8502081D01F0FD
:1059AC0033F847F825606368013363600120E8E74A
:1059BC0037B500F124030446406A01930D46FFF706
:1059CC00DDFCD4E9003203EB8202934219460BD082
:1059DC000968A94203F10403F7D101A8FFF70DFFF1
:1059EC000025284603B030BD29462046FFF7BAFFF4
:1059FC0005460028F1D06368012B01D1FFF700FEAA
:105A0C0001A8FFF7FAFEECE770B50446D0E90002F6
:105A1C000B4600EB820282420FD001461D6851F802
:105A2C00046BAE4207D1521A00F0EEFF6368013BE3
:105A3C006360012070BD0846EDE70020FAE71FB552
:105A4C0000F124030446406A01910393FFF796FC8E
:105A5C0001A92046FFF7D8FF18B163680BB9FFF70F
:105A6C00DBFD03A8FFF7C9FE04B010BD70B5D0E98B
:105A7C0004561823044603FB0656AE4215D005F116
:105A8C0010012046FFF7C0FF63680BB9FFF7C4FD98
:105A9C00E06929690368DB689847696919B1206A6C
:105AAC000368DB6898471835E7E7D4E904531826F0
:105ABC0006FB0356AE4204D0284600F0DBFC18353A
:105ACC00F8E70023636170BD73B50446FFF7A4FDCE
:105ADC0004F12403606A0193FFF750FC2046FFF7A2
:105AEC00C5FF01A8FFF789FE606A08B1FEF754FCF8
:105AFC00D4E90453182606FB0356AE4204D02846BC
:105B0C0000F0B8FC1835F8E72069FEF7E9FD2068CD
:105B1C00FEF7E6FD204602B070BD00000148FFF71D
:105B2C00D3BF00BFD0E603208842F8B504460D462B
:105B3C00164615D9904214D2A2F11406751AA1F189
:105B4C0014072C44B7421AD01CB131462046FFF73B
:105B5C0078FC06F10800FFF7F9FD143E143CF1E760
:105B6C000DD0B5420BD01CB129462046FFF769FC7D
:105B7C0005F10800FFF7EAFD14351434F1E7F8BD20
:105B8C008842F8B504460D46164614D9904213D2F5
:105B9C00A2F11006751AA1F110072C44B74218D0C7
:105BAC001CB13146204600F0E1FC304600F062FCAE
:105BBC00103E103CF2E70CD0B5420AD01CB129467D
:105BCC00204600F0D3FC284600F054FC103510346D
:105BDC00F2E7F8BD70B50E1E054611DD3001FEF77B
:105BEC0077FD044658B1D5E9001201EB0212FFF71C
:105BFC00C7FF2868FEF774FD2C60AE60012070BDF5
:105C0C000024F6E72DE9F04F904695B00023039160
:105C1C00D8F804100A9346229942C0E90033C0E92F
:105C2C000233C0E90433CDE908330446027623DCA1
:105C3C00D8E90057142303FB0757AF423BD0294642
:105C4C000BA800F093FC0BA90FA8099E00F08EFC8A
:105C5C00DDE9091399421BDA089B099A03EB061636
:105C6C0003EB0212314606F11000FFF789FFEEB983
:105C7C00099B0133099311E008A8FFF7ABFF00283B
:105C8C00D6D108A8FEF79DFD204615B0BDE8F08FD3
:105C9C00013108A8FFF79EFF0028DDD10FA800F006
:105CAC00E9FB0BA800F0E6FB1435C6E70FA930465C
:105CBC0000F05CFCDCE70026CDE90B660D964FF09E
:105CCC001409DDE908239E427CDA3301D35806938C
:105CDC000BB90136F5E70023079309FB06F3029392
:105CEC000BAD07A906A8FFF722FB82460028F0D0CF
:105CFC004FF000038DF817300146079A0DF117038A
:105D0C002846FFF7B1FB9DF817700190002F4AD180
:105D1C00BDF81C30ADF84030CDE911774FF6FF736C
:105D2C00CDF83CA0ADF842301397D5E9013293423F
:105D3C0017DB03F1010ABAF1000F30DD09FB0AF0A1
:105D4C00FEF7C6FC834660B3D5E9001209FB0212CC
:105D5C00FFF7EAFE2868FEF7C3FCC5F800B0C5F8EB
:105D6C0008A02B68019A09FB023A6A68514609FBA4
:105D7C0002320AF11400FFF7D7FEBAF1000F03D07C
:105D8C000FA95046FFF75DFB6B6801336B6011A8E0
:105D9C00FFF7DCFC3FB10BA8FFF7D8FC71E7BB4663
:105DAC00D8E70127F3E7019B2D6809FB0355069BF8
:105DBC001B782BB9D8F80030029A13441B7CEB806B
:105DCC0008358EE72168226062686360A3680992D7
:105DDC000A9A0A93E368A2600B9A0B932369E26018
:105DEC000C9A0C93636922610D9A0D93039B089195
:105DFC0062612376CFE70000F0B5044687B00D460C
:105E0C002646194668461746FEF73DFA0B4B46F8F0
:105E1C00043B694603A8FEF736FA03AA3946304616
:105E2C00FFF7F0FE03A8FEF7EDF96846FEF7EAF976
:105E3C00034B23602046256207B0F0BDE06D0B00DC
:105E4C005C6F0B00F0B50F4685B01D490A9C3846B7
:105E5C0016461D4600F03FFEC0B9A4B1294601A864
:105E6C00FFF7BCFC1749242000F0AAFD054630B111
:105E7C0001AB32462146FFF7BFFF134B2B6001A845
:105E8C00FEF7C0F92C46204605B0F0BD0F49384648
:105E9C0000F021FE90B9002CF5D0294601A8FFF79F
:105EAC009DFC0849242000F08BFD05460028E6D017
:105EBC0001AB32462146FFF79FFFE0E70024E2E703
:105ECC00DD6E0B006C700B00746F0B00E16E0B0041
:105EDC00014B024A1A607047CCE60320F26E0B00AD
:105EEC002DE9F047089DD0F8209004460E46174641
:105EFC00984600F063FC81454CD02B79190704D5EA
:105F0C006A6954492046FFF78DFAB8F1000F0DD09D
:105F1C005B212046FFF77AFA41462046FFF767FAE5
:105F2C0023684D49DB680222204698472B79DA0713
:105F3C0023D5D5F808802F21404600F018FE08B173
:105F4C0000F1010841462046FFF751FA2B799B07D7
:105F5C0008D53A212046FFF759FAEA683F4920460E
:105F6C00FFF760FA2A79236812F0040FDB6814BF7C
:105F7C003B493C490222204698472B7958071DD5AE
:105F8C0029690B461A4613F8010B60B1202808D179
:105F9C001946F7E7344800F066F90028ADD0BDE8A3
:105FAC00F0872828EED12368521ADB6820469847E0
:105FBC0023682E49DB680422204698470021384686
:105FCC00FEF7CAFA01462046FFF711FA2368254965
:105FDC00DB680222204698471EB131462046FFF767
:105FEC0006FA2B7913F0300F2CD023682049DB688C
:105FFC000222204698472B79D9060AD523681D49D9
:10600C00DB68072220469847AA691B492046FFF700
:10601C0009FA2B799A0611D5DB0605D523681049A8
:10602C00DB6802222046984723681449DB68204627
:10603C000A229847E9692046FFF7D9F95D212046E5
:10604C00FFF7E4F923680E49DB6820460222BDE81D
:10605C00F0471847F66E0B00FD6E0B00B16D0B0090
:10606C00006F0B00056F0B00F8E60320036F0B00AD
:10607C00086F0B000B6F0B00136F0B00166F0B00F0
:10608C00216F0B002DE9F04385B0D0F820900C9CCB
:10609C0005460F4690461E4600F090FB814505D103
:1060AC00494800F0E0F8002840F08A802B6A474A03
:1060BC0001924FF0000901A803938DF80890FFF7A7
:1060CC0078F849464046FEF747FA41498046012296
:1060DC0001A8FFF7FDF84146FFF77BF93FB13D49B9
:1060EC00012201A8FFF7F4F83946FFF772F93EB127
:1060FC003949012201A8FFF7EBF83146FFF769F99E
:10610C002379DF070ED5A6682F21304600F02FFD2E
:10611C0000B1461C3149012201A8FFF7D9F83146DC
:10612C00FFF757F923799E0707D52D49022201A8BD
:10613C00FFF7CEF8E168FFF749F82379580714D533
:10614C00266933461F4613F8012B2AB1202A01D1A8
:10615C001E46F7E7282AF5D12249022201A8FFF7AB
:10616C00B7F8BA1B3146FFF7C3F82379190707D5DF
:10617C001D49012201A8FFF7ABF86169FFF738F858
:10618C002379DA0608D5042218490DEB0200FFF733
:10619C009FF8A169FFF71AF823799B0607D51449D4
:1061AC00062201A8FFF794F8E169FFF712F901A89C
:1061BC00FEF7E9FF286A0F4903680222DB6898475B
:1061CC0005B0BDE8F08300BFF8E60320446F0B0078
:1061DC00D36E0B00246F0B00DB700B00266F0B00D3
:1061EC00286F0B002B6F0B00136E0B002E6F0B0028
:1061FC00336F0B00216F0B00002340681A46FEF72B
:10620C0007BA406800220221FEF712BA0022406849
:10621C001146FEF705BA002240681146FEF710BA87
:10622C00002340681A461946FEF712BA002340684C
:10623C001A461946FEF714BA40680021FEF738BA20
:10624C0040680021FEF73CBA4068002281F0010151
:10625C00FEF70EBA40680022FEF71ABA0022406818
:10626C001146FEF71DBA002240681146FEF708BA27
:10627C002DE9F04395B014460D460746FEF732FE65
:10628C0000211C220DA8009100F0D8FB40230C9398
:10629C0020466B460CAA0021FEF7BEF804460028E7
:1062AC004BD1024601216868FEF7CAF902218046EB
:1062BC0022466868FEF7C4F9009E81462146002EEE
:1062CC003BD0002939D17368022B03D00A2B11D093
:1062DC00F669F4E7B8F1000FFAD0716906A8043139
:1062EC0007ADFEF72DFE0FCD3C1D0FC42B682370A0
:1062FC004146EDE7B9F1000FEAD07469102201A80C
:10630C0000F09CFB06238DF8143001AD04F108035A
:10631C001834186859682A4603C20833A342154634
:10632C00F7D101A906A807ADFEF7EAFD0FCD3C1D7C
:10633C000FC42B6823704946CAE70098FEF764F82F
:10634C00384615B0BDE8F083024B034A1A600022B0
:10635C005A607047F8E60320BC6F0B00F8B5064690
:10636C000D468F180024BD420CD0336815F8011B64
:10637C009B6830469847031E01DB1C44F3E7002C56
:10638C0008BF1C462046F8BD13B50446084659B153
:10639C00019100F0D0FB23680199DB68024620468E
:1063AC0002B0BDE81040184702B010BD03689B68EE
:1063BC00184738B50D210546FFF7F8FF0A210446AA
:1063CC002846FFF7F3FF204438BD30B58BB00023CF
:1063DC00012A8DF8243098BF0A2209AC0D46B1FB76
:1063EC00F2F101FB125303F0FF03092B94BF30337E
:1063FC003733DBB2AA4204F8013DEFD92146FFF74F
:10640C00C3FF0BB030BD2DE9F04186B000AF05469F
:10641C000E46381D142114463B60FEF771F9132803
:10642C000ED8391D2846FFF7AFFF04461EB128468B
:10643C00FFF7BFFF044420461837BD46BDE8F08186
:10644C0000F1080323F00703E846ADEB030D2246E9
:10645C00411C3B686846FEF753F969462846FFF72E
:10646C0093FF0446C546E1E7014B00229A60704752
:10647C0000E7032010B504460068FEF731F920460A
:10648C0010BD10B50446006808B1FEF729F90023C9
:10649C00C4E90133236010BD38B504460D460068CD
:1064AC000131FEF725F910B1C4E90005012038BD12
:1064BC0010B50368044623B143688B4201D3012015
:1064CC0010BD2046FFF7E8FF0028F9D0A368002B89
:1064DC00F5D122681370F2E737B50D4611460192DB
:1064EC000446FFF7E5FF019A28B92046FFF7C9FFDC
:1064FC00204603B030BDA2602946206800F076FA31
:10650C002268A3680021D154F2E7002313B5C0E937
:10651C00003304468360037341B10846019100F0D7
:10652C000AFB019902462046FFF7D6FF204602B02F
:10653C0010BD38B5054600680C4668B16A688B68B2
:10654C009A4207D3096800F0D0FAA368AB60002325
:10655C00A36038BDFEF7C4F823682B6063686B60DA
:10656C00A368AB600023C4E90033F1E710B5002346
:10657C00C0E90033044683600373FFF7DAFF20465B
:10658C0010BD884210B5044605D00B682BB18A6843
:10659C001946FFF7A1FF204610BDFFF772FFFAE77F
:1065AC0010B500230446C0E9003383600373FFF782
:1065BC00E8FF204610BD00000EB470B587B00BADDF
:1065CC00044655F8042B01922B46052104A803958B
:1065DC00FEF796F80B4906462046FFF796FF314624
:1065EC002046FFF765FF206830B1019A03952B46D2
:1065FC00711CFEF785F8A060204607B0BDE870401E
:10660C0003B07047236F0B00054B02221A60054B39
:10661C00054A9A600020C3E90000FDF7ADBF00BF3A
:10662C001CE7032010E703200000FFFF024B1A6851
:10663C00024B1A60704700BFE8E5032020E70320F7
:10664C0070474174704708B5007CFDF71DFF20EAC8
:10665C00E07008BD08B5007CFDF7F6FE20EAE0709E
:10666C0008BD08B5007CFDF7FFFE40EAE07008BDF0
:10667C0008B5007CFDF7F0FE40EAE07008BD007C38
:10668C00FDF7FABE37B5457C04462DB1207C03B02E
:10669C00BDE83040FDF7D0BE007C0191FDF7F4FE63
:1066AC0000280199F2DC284603B030BD10B5142146
:1066BC000446FDF7ECFC204610BD000010B54FF46D
:1066CC007A730446084611460022C4E90123044BA0
:1066DC002360012320746374FDF7E6FE204610BD91
:1066EC0014700B00007C0023FDF7D6BE0022FFF7D0
:1066FC00F9BF007CFDF798BE417470477047704736
:10670C0008B50021007CFDF7FFFE40EAE07008BDF3
:10671C0008B50121007CFDF7F7FE40EAE07008BDEA
:10672C0008B5007CFDF7E8FE20EAE07008BD08B56E
:10673C00007CFDF7D9FE20EAE07008BD13B50446D5
:10674C00007C0191FDF7D8FE0028019901DC607CEA
:10675C0020B1207CFDF7E0FE20EAE07002B010BD15
:10676C00007CFDF7E1BE10B514210446FDF78FFC4B
:10677C00204610BD10B54FF47A730446084600212C
:10678C00C4E90113044B2360012320746374114684
:10679C00FDF792FE204610BD44700B00007C0022D9
:1067AC00FDF792BE007CFDF797BE10B5142204468F
:1067BC00002100F043F9204610BD000010B50F4C2D
:1067CC0088B003A8FFF7F1FF2178BFF35B8F11F0BE
:1067DC0001010FD120460191FDF768FC019948B1E8
:1067EC0003AA0748FFF7C6FF2046FDF764FC0548DF
:1067FC0000F0EDF8024808B010BD00BF24E70320FC
:10680C0028E7032009670B00014B1860704700BF95
:10681C00ECE5032008B50B4B43B1FFF7CFFF036842
:10682C001B699847002801DDAFF30080064B43B18C
:10683C0000F0A2F803681B699847002801DDAFF34C
:10684C00008008BD000000000000000008B5FFF744
:10685C00E1FFFDF7C9FD014B186008BD44E70320BB
:10686C000548064A064908B5121A00F0BFF8054B50
:10687C00054A1A6008BD00BF00F4032004F403208D
:10688C0034720B0000F403201E1C279A07B500235A
:10689C0000931A466FF07701FDF798FE03B05DF890
:1068AC0004FB000007B543880A2B08D0502B0BD1F2
:1068BC00094B1B684BB103B05DF804EB1847FFF7AD
:1068CC00E5FF03B05DF804FB002300931A466FF05C
:1068DC007701FDF77BFEF4E740E7032010B5124883
:1068EC000021FDF735FF114B1A68114B9A42114BE1
:1068FC000CBF012200221A7001D0FFF7B1FFFDF787
:10690C0063FD044600F0A2F80B4B13B12046AFF325
:10691C00008000210848FDF773FEBDE810400748D1
:10692C000021FDF749BE00BF15680B0000F40320E1
:10693C001E1C279A3CE7032000000000B1680B00E6
:10694C007047000038B5044614252A46002100F093
:10695C0075F825804025074925812846258200F0B9
:10696C0031F804496060284600F02CF8E0602046BD
:10697C0038BD00BF6C700B0030B50E4D2978BFF3DD
:10698C005B8F11F0010487B011D12846FDF78EFB07
:10699C0068B101A8FFF7D6FF01AA21460648FFF708
:1069AC008DFE2846FDF787FB044800F010F80248DE
:1069BC0007B030BD48E703204CE703204D690B00BE
:1069CC00FDF761BBFDF761BB08B5FDF7A1FE002328
:1069DC0001461A46184600F06BB90000024B1844E9
:1069EC00407800F097007047DD700B000A4491422C
:1069FC0000F1FF3300D1704710B511F8014B03F8CB
:106A0C00014F9142F9D110BD884210B501EB02043F
:106A1C0002D98442234607D8431EA14208D011F85C
:106A2C00012B03F8012FF8E7024401468A4200D1FA
:106A3C0010BD13F8014D02F8014DF7E7024403466F
:106A4C00934200D1704703F8011BF9E738B5104B9E
:106A5C001D68AB6B0446B3B91820FDF739FE02462E
:106A6C00A86320B90B4B0C484221FDF769FE0B497A
:106A7C000B4BC0E900130B4B83600B23838100216C
:106A8C000120C2E90401AB6B00221C615A6138BDC4
:106A9C00ECE503206D700B0084700B000E33CDAB56
:106AAC0034126DE6ECDE0500C9B2034610F8012B7A
:106ABC001AB18A42F9D118467047002918BF002331
:106ACC00F9E710B50446FFF7EFFF18B9204600F0C0
:106ADC0032F8204410BD10F8012B11F8013B012AAB
:106AEC0028BF9A42F7D0D01A7047034611F8012BF1
:106AFC0003F8012B002AF9D170470000024B014624
:106B0C00186800F003B800BFECE5032037B5044665
:106B1C0008460D4600F00FF8421C11462046019223
:106B2C00FDF7FEFD044618B1019A2946FFF75EFFFA
:106B3C00204603B030BD034613F8012B002AFBD1CD
:106B4C00181A0138704710B57AB103460139841808
:106B5C0013F8010B11F8012F904201D1A34201D17E
:106B6C00801A10BD0028F3D1FAE71046F9E738B5C2
:106B7C0003460C4669B9BDE83840FFF795BF431C86
:106B8C00054621461846FFF78FFF0028F7D1284607
:106B9C0038BD0025F5E70000012B2DE9F04701D0A9
:106BAC00242B06D9FDF7C4FD162303600020BDE895
:106BBC00F087DFF8E4C00D462E4615F8014B14F8AB
:106BCC000C7017F00807F7D12D2C32D12C78012737
:106BDC00B51C002B5BD0102B09D1302C07D12C7895
:106BEC0004F0DF04582C4DD16C781023023507F1DA
:106BFC00004808F1FF384FF0000CB8FBF3F966467B
:106C0C0003FB198AA4F1300EBEF1090F16D8744695
:106C1C00A34224DDBCF1000F1EDBB1451CD301D116
:106C2C00A24519DB06FB03464FF0010C15F8014B8E
:106C3C00E8E72B2C04BF2C78B51CCAE7A4F1410E55
:106C4C00BEF1190F01D8373CE2E7A4F1610EBEF199
:106C5C00190F04D8573CDBE74FF0FF3CE6E7BCF1DB
:106C6C00000F05DA22230360464642B930469EE700
:106C7C0007B17642002AF9D0BCF1000F00D0691E92
:106C8C001160F3E73024002BB1D10823AFE7302C8F
:106C9C00A5D00A23ABE700BFDE700B0013460A46F3
:106CAC00014602480068FFF777BF00BFECE5032000
:106CBC002DE9F843DFF8B8800646D8F800001F46E7
:106CCC000D46914600F056F8254B1C6834B9254CFE
:106CDC001C60254B13B11B68C4F8883063681F2BEC
:106CEC0007DDD8F8000000F047F84FF0FF30BDE8A2
:106CFC00F8834EB3D4F8880088B91C4B23B9D8F864
:106D0C00000000F038F8F0E74FF48470FDF7E0FC79
:106D1C000028F4D00023C0E94033C4F8880063682D
:106D2C0040F8239001229A4000EB8301D0F8003107
:106D3C001343C0F80031022EC1F8807002BFD0F8A6
:106D4C0004311343C0F804316368D8F800005A1CAE
:106D5C000233626044F8235000F00EF80020C6E7BE
:106D6C00ECE7032060E7032000000000DD460B0089
:106D7C0050E6032070477047704700001D400B0021
:106D8C0059400B0081400B0085400B0000000000B7
:106D9C0043616C6C206F6E20707572652076697221
:106DAC007475616C002564007075626C697368653C
:106DBC0064202573006E6F7420636C6F75642063A0
:106DCC006F6E6E65637465642025730000000000AF
:106DDC00000000000000000000000000A1400B00BB
:106DEC00C9400B000000000000000000D5400B0063
:106DFC0009410B00ED5E0B00CB400B00636F756E11
:106E0C007465724576656E74000000000000000029
:106E1C000000000097480B008D480B0083480B00C6
:106E2C0039480B0077480B006B480B0045620B0090
:106E3C004D620B005F480B0057480B004D480B0090
:106E4C0043480B007D620B000000000000000000B6
:106E5C00D1480B00D7480B0015490B00E5480B0037
:106E6C00D3480B0000000000000000005F4E0B0038
:106E7C00554E0B004B4E0B00414E0B00354E0B008C
:106E8C00294E0B0045620B004D620B001D4E0B0092
:106E9C00154E0B000B4E0B00014E0B007D620B00D0
:106EAC0000000000000000008D4E0B007D4E0B001A
:106EBC007F4E0B00257500752530347800626175A6
:106ECC00640053657269616C0053657269616C3161
:106EDC00004A534F4E53747265616D4C6F67486135
:106EEC006E646C65720061707000253031307520F5
:106EFC00005D20002C200028293A2000205B006334
:106F0C006F6465203D200025690064657461696CBF
:106F1C0073203D20000D0A006D0066006C6E00664B
:106F2C006E00636F64650064657461696C000000D9
:106F3C00000000000000000039530B005F530B00F1
:106F4C001D530B009B4F0B000000000000000000C5
:106F5C0095570B00AD570B00ED5E0B00CB400B00B3
:106F6C000000000000000000C1570B00D5570B00BB
:106F7C0091600B0025530B00000000000000000086
:106F8C0037530B006D530B00515E0B0027530B0056
:106F9C00000000000000000035530B007B530B0079
:106FAC00FD560B009D530B0000000000000000007C
:106FBC0005620B000F620B0019620B0023620B00C1
:106FCC002D620B0039620B0045620B004D620B0009
:106FDC0055620B0061620B0069620B0073620B005F
:106FEC007D620B0025592D256D2D25645425483ABD
:106FFC00254D3A2553257A0061736374696D6500DC
:10700C0000000000000000004D660B00B9660B008C
:10701C0091660B0069630B0061660B007D660B00CB
:10702C006F660B008B660B004F660B0053660B00F4
:10703C0000000000000000000B670B0073670B00E2
:10704C0049670B0069630B003B670B000D670B0076
:10705C001D670B006D670B002D670B0005670B00A0
:10706C00005245454E54206D616C6C6F63207375F6
:10707C0063636565646564002F746D702F6A656E5B
:10708C006B696E732D4743432D31302D70697065DC
:10709C006C696E652D34385F3230323031313234B8
:1070AC005F313630363138303633392F7372632FC7
:1070BC006E65776C69622F6E65776C69622F6C698F
:1070CC0062632F7374646C69622F72616E642E63D9
:1070DC0000002020202020202020202828282828BC
:1070EC002020202020202020202020202020202094
:1070FC0020208810101010101010101010101010EC
:10710C0010100404040404040404040410101010EB
:10711C0010101041414141414101010101010101A6
:10712C000101010101010101010101010110101016
:10713C001010104242424242420202020202020279
:10714C0002020202020202020202020202101010E9
:10715C0010200000000000000000000000000000F3
:10716C000000000000000000000000000000000013
:10717C000000000000000000000000000000000003
:10718C0000000000000000000000000000000000F3
:10719C0000000000000000000000000000000000E3
:1071AC0000000000000000000000000000000000D3
:1071BC0000000000000000000000000000000000C3
:1071CC0000000000000000000000000000000000B3
:1071DC0000000000F9420B0029480B00A1480B00ED
:1071EC00694E0B00DD5E0B0055630B0075640B00E4
:1071FC0015660B0039660B00000000000000000053
:04720C00000000007E
:10721000040000001400000003000000474E550069
:10722000E7BC46F0EA6E2E9152A9E832C5E1B308F8
:047230008A581EB5A5
:047234000000000056
:10723800086E0B0000000000307500000000000020
:107248008C6F0B00A46F0B0004700B00F0E503209B
:107258000000000000000000000000000000000026
:107268000000000000000000000000000000000016
:107278000000000000000000000000000000000006
:1072880000000000000000000000000000000000F6
:1072980000000000000000000000000000000000E6
:1072A80000000000000000000000000000000000D6
:0472B800F0E70320D8
:1072BC00FFFFFFFF00000102030405060708090A8F
:1072CC000B0C0D0E0F101112131415161718191A8A
:0872DC001B1C1D1E1F202800D1
:0472E4007856341292
:04000003B000401CED
:00000001FF
