:02000002B0004C
:1040000000400B00DC790B00000006000D000502EB
:084010000401A60F00000000EE
:0440180044740B00E1
:10401C0009480A49884208B505D0094A824202D0AB
:10402C00121A03F041F80748074A0021121A03F04C
:10403C0063F8014808BD00BFA0E5032038790B00E8
:10404C001CE603201CE60320EDE7032070B5074EA9
:10405C00074C02F051FDA41BA4080025AC4200D172
:10406C0070BD56F8043B98470135F7E7EC780B0028
:10407C0010790B0000F064B808B500F063F8BDE8E7
:10408C00084002F0F1BC00F0DBBB00F0D9BB00F043
:10409C00DFBB000008B5034A03490C2000F0FCFA12
:1040AC00FEE700BF85440B0058740B000078B0FA93
:1040BC0080F0400970470123037070477047006A15
:1040CC000368DB68184700000A4B10B50446036010
:1040DC0001F07EFB214601F0B6FD02F07DFC02F002
:1040EC006FFC2046044B40F8043B01F047FC204693
:1040FC0010BD00BFEC740B00D4740B0010B504465B
:10410C00FFF7E2FF20462421FFF7C1FF204610BD38
:10411C000EB400B58CB00DAA4FF0200C52F8041B55
:10412C000392CDE900120023016804AA1E20CDE9F8
:10413C0004C300F0B9FA0CB05DF804EB03B070479F
:10414C007047000070B52DED028B464C88B000F026
:10415C009BF92368C01A444BD3E9002390424FF0DB
:10416C00000272EB030374DB00F08EF93F4D20600C
:10417C002E460524132002F02FFD013C46F8040BBB
:10418C000A2000F0A5FB14F0FF04F3D1DFED387A20
:10419C000523B5EC017A013BB8EEC77A13F0FF03A7
:1041AC0077EE877AF5D1B1EE047AC7EE878A31497A
:1041BC003148FFF7ADFF18EE900A02F00FFF0246F0
:1041CC000B462D482D49FFF7A3FFDFED2D7A2D4926
:1041DC00294887EEA88AF7EE007A38EE678AFFF74F
:1041EC0097FFDFED297AC7EE887A17EE900A02F076
:1041FC00F5FE02460B4604460D461F481F49FFF7C5
:10420C0087FF00F0A5FA40B3224620492B4604A8AC
:10421C0002F0E0FA1E4B049A1B788DF800301D4911
:10422C003C2302A800F034FD039C7CB16368013B85
:10423C0063605BB9236820469B689847A368013B81
:10424C00A3601BB923682046DB68984704A802F0DA
:10425C001FFA08B0BDEC028B70BD0F490648FFF782
:10426C0057FFF6E720E60320A0E5032048E60320ED
:10427C00000000006D740B00A4E6032085740B0095
:10428C0000C07F448A740B0000401C46A1740B00D4
:10429C001CE60320A4740B00B5740B0070B5D0E9B8
:1042AC0000531426044606FB0356AE4204D028469F
:1042BC0002F0EEF91435F8E7206800F0C9FA204650
:1042CC0070BD8842F8B504460D46164616D9904284
:1042DC0015D2A2F11406751AA1F114072C44B74299
:1042EC001CD02CB13146204602F04EFA337C23749C
:1042FC00304602F0CDF9143E143CF0E70ED0B54236
:10430C000CD02CB12946204602F03EFA2B7C2374AB
:10431C00284602F0BDF914351434F0E7F8BD2DE948
:10432C00F0410023C0E9003383604F689F4204468C
:10433C000E4623DD4FF0140808FB07F000F080FA5E
:10434C000546D8B1D4E9001208FB0212FFF7B9FFF9
:10435C00206800F07DFA2560A760D6E9007308FBA1
:10436C000378B84508D03946284602F027FA3B7C3A
:10437C002B7414371435F4E7736863602046BDE87A
:10438C00F08100002DE9F041224B234C8CB04FF012
:10439C00010883F800800025CDE90055029502F054
:1043AC001BFB6946064603A8FFF7B9FF274603A97E
:1043BC0006A8FFF7B4FF194B47F8043B06A909A858
:1043CC00FFF7ADFF09AA1E21384601F01FFD09A811
:1043DC00FFF764FF06A8FFF761FF114B236003A8EA
:1043EC002662FFF75BFF0F4B236002F0F5FA4FF4E8
:1043FC00165102F0E1FA01F0EBF9214601F0DCFB79
:10440C006846FFF74BFF294640460CB0BDE8F0412B
:10441C0000F072B91CE6032024E60320D4740B00D0
:10442C0068760B00EC740B0008B5024B1B685B6CD8
:10443C00019308BD4802030008B5024B1B689B6C36
:10444C00019308BD4802030008B5024B1B68DB6CE6
:10445C00019308BD4802030008B5024B1B685B6D55
:10446C00019308BD4802030008B5024B1B685B684A
:10447C00019308BD1802030008B5024B1B68DB68EA
:10448C00019308BD1802030008B5024B1B685B6959
:10449C00019308BD1802030008B5024B1B685B684A
:1044AC00019308BD2C02030008B5024B1B681B6B63
:1044BC00019308BD2C02030008B5024B1B681B6A54
:1044CC00019308BD2802030008B5024B1B685B6A08
:1044DC00019308BD2802030008B5024B1B689B6AB8
:1044EC00019308BD2802030008B5024B1B68DB6A68
:1044FC00019308BD2802030008B5024B1B681B6B17
:10450C00019308BD2802030008B5024B1B685B6BC6
:10451C00019308BD2802030008B5024B1B681B6CF5
:10452C00019308BD2802030008B5024B1B685B69A8
:10453C00019308BD6402030008B5024B1B689B681D
:10454C00019308BD6802030008B5024B1B68DB68C9
:10455C00019308BD6802030008B5024B1B68DB69B8
:10456C00019308BD3002030008B5024B1B681B6A9F
:10457C00019308BD3002030008B5024B1B689B6811
:10458C00019308BD3C02030008B5024B1B68DB68B5
:10459C00019308BD3C02030008B5024B1B681B6964
:1045AC00019308BD3C02030008B5024B1B685B6914
:1045BC00019308BD3C02030008B5024B1B689B69C4
:1045CC00019308BD3C02030008B5024B1B68DB6974
:1045DC00019308BD3C02030008B5024B1B681B6A23
:1045EC00019308BD3C02030008B5024B1B689B6A93
:1045FC00019308BD3C02030008B5024B1B68DB6A43
:10460C00019308BD3C02030008B5024B1B681B6CF0
:10461C00019308BD3C02030008B5024B1B681B68E4
:10462C00019308BD4C02030008B5024B1B685B6884
:10463C00019308BD4C02030008B5024B1B689B6834
:10464C00019308BD4C02030008B5024B1B681B69A3
:10465C00019308BD4C02030008B5024B1B685B6953
:10466C00019308BD4C02030008B5024B1B689B6903
:10467C00019308BD4C02030008B5024B1B68DB69B3
:10468C00019308BD4C02030008B5024B1B681B6A62
:10469C00019308BD4C02030008B5024B1B685B6B11
:1046AC00019308BD6002030008B5024B1B685B6DEB
:1046BC00019308BD6002030008B5024B1B68DB6E5A
:1046CC00019308BD6002030008B5024B1B681B6F09
:1046DC00019308BD6002030008B5024B1B685B68C0
:1046EC00019308BD2002030008B5024B1B685B69EF
:1046FC00019308BD2002030008B5024B1B68DB6A5E
:10470C00019308BD2002030008B5024B1B68DB6C4B
:10471C00019308BD2002030008B5024B1B685B6DBA
:10472C00019308BD2002030008B5034B1B68D3F8A6
:10473C008830019308BD00002002030008B5034B2C
:10474C001B68D3F89430019308BD000020020300CD
:10475C0008B5024B1B685B69019308BD440203005A
:10476C0008B5024B1B681B6A019308BD4402030089
:10477C0008B5024B1B68DB6B019308BD44020300B8
:10478C0008B5024B1B685B68019308BD400203002F
:10479C0008B5024B1B689B68019308BD40020300DF
:1047AC0008B5024B1B68DB68019308BD400203008F
:1047BC0008B5024B1B681B69019308BD400203003E
:1047CC0008B5024B1B685B69019308BD40020300EE
:1047DC0008B5024B1B689B69019308BD400203009E
:1047EC0008B5024B1B68DB69019308BD400203004E
:1047FC0008B5024B1B681B6A019308BD40020300FD
:10480C0008B5024B1B681B6B019308BD40020300EB
:10481C0008B5024B1B685B6B019308BD400203009B
:10482C0008B5024B1B681B6C019308BD40020300CA
:10483C0008B5024B1B685B6C019308BD400203007A
:10484C0008B5024B1B681B68019308BD1C020300D2
:10485C0008B5024B1B685B68019308BD1C02030082
:10486C0008B5024B1B689B68019308BD1C02030032
:10487C0008B5024B1B685B6A019308BD1C02030060
:10488C0008B5024B1B68DB6A019308BD1C020300D0
:10489C0008B5024B1B681B6B019308BD1C0203007F
:1048AC0008B5024B1B68DB6B019308BD1C020300AF
:1048BC0008B5024B1B681B6C019308BD1C0203005E
:1048CC0008B5024B1B685B6C019308BD1C0203000E
:1048DC000021FFF709BF10B5836804460BB902F03D
:1048EC0015FAC3689847A3681BB1032221462046DA
:1048FC00984720461021BDE81040FFF7C8BB10B503
:10490C008368044613B1032201469847204610BD24
:10491C0010B54368013B0446436063B903689B6868
:10492C009847A368013BA3602BB923682046DB683A
:10493C00BDE81040184710BD70B5D0E900530446CF
:10494C0005EB0316AE4204D0284601F0A1FE10354B
:10495C00F8E72068FFF77CFF204670BD10B50446D1
:10496C00006808B1FFF7D4FF204610BD13B50B4605
:10497C000246D0E900016C4684E8030093E803008A
:10498C0082E8030094E8030083E8030002B010BD42
:10499C00024800230360FFF747BD00BF5CE603201D
:1049AC00002240681146FFF703BF00224068114601
:1049BC00FFF71EBF002240681146FFF729BF406871
:1049CC000022FFF71DBF4068002281F00101FFF7B4
:1049DC0007BF002340681A461946FFF7F9BE0023AB
:1049EC0040681A461946FFF7EBBE00224068114694
:1049FC00FFF7CEBE406800220221FFF7D1BE002394
:104A0C0040681A46FFF7BCBE084B10B52824224656
:104A1C001846002102F070FB054B04804FF0FF326A
:104A2C00426004225A60034A1A6010BD68E60320F3
:104A3C0060E6032004750B0070470020704710B52A
:104A4C0010210446FFF723FB204610BD08B5FFF7E5
:104A5C00F6FF08BD30B500224FF69C7402608480CE
:104A6C008D888C800C68858004600A6030BD10B520
:104A7C0004460068FFF7ECFE204610BD38B5C4684C
:104A8C00F4B12378022B03D104F10C00FFF7EFFFF4
:104A9C00656835B12846FFF732FF10212846FFF72D
:104AAC00F6FAA56835B12846FFF729FF10212846EC
:104ABC00FFF7EDFA20461421BDE83840FFF7E7BABE
:104ACC0038BD0B6803604B68436013B15A68013200
:104ADC005A60704737B5044668460D46FFF7F1FF3C
:104AEC00009B019A23606260002301A8019300934C
:104AFC00FFF734FF35B1281DFFF730FF082128469A
:104B0C00FFF7C5FA204603B030BD826810B50AB96C
:104B1C0002F0FCF8BDE81040C368184708B50068FF
:104B2C0000F11001FFF7F1FF08BD826810B50AB95A
:104B3C0002F0ECF8BDE81040C368184708B50068EF
:104B4C0000F11001FFF7F1FF08BD000038B500239C
:104B5C000446036010200D46FFF795FA28B1012397
:104B6C00C0E90133024B0360C5602060204638BDAC
:104B7C0040750B0038B5002383608B6804460D46E6
:104B8C002BB102229847EB68E360AB68A360204628
:104B9C0038BD0000F0B589B004686846FFF75AFFCD
:104BAC004FF00203D4E84F2F002A03D1C4E8413F51
:104BBC000029F7D125D104F10C0569462846FFF7E9
:104BCC0049FFBFF35B8F01236370002004F10803DE
:104BDC00BFF35B8F53E8006F43E80002002AF9D162
:104BEC00BFF35B8F6EB1FFF78FFD78B1294630466E
:104BFC00FFF78BFF3046FFF782FE10213046FFF7A0
:104C0C0046FA6846FFF733FF09B0F0BD314602A8FB
:104C1C00FFF7B0FFE068B4F9105008B102F0CCFA1D
:104C2C0006901020ADF81C50FFF72DFA0546E8B1A0
:104C3C00002787601820FFF726FA044688B1014642
:104C4C00876002A8FFF792FE049BA268A360059BF5
:104C5C00049206A9E268E36004F110000592FFF7E4
:104C6C00F9FE084BEB60084B2C60AB6006A8FFF715
:104C7C00FEFE02A8FFF743FE002229460348FFF779
:104C8C004BFDB7E7294B0B00AD4D0B00E3480B0078
:104C9C002DE9F04F8BB005469DF850A00F4690467D
:104CAC009946FFF755FD07AE834638BB4FF62E737A
:104CBC00059005A93046ADF81830FFF7CBFE14204F
:104CCC00FFF7E1F9044648B1022303700123C0E960
:104CDC0001BB437031460C30FFF7BCFE2846214621
:104CEC0040F8044BFFF732FF3046FFF7C0FE05A833
:104CFC00FFF7BDFE28460BB0BDE8F08F0C23002457
:104D0C001420CDE908440793FFF7BDF9014618B10B
:104D1C00C0E901440470447004A80391FFF716FF26
:104D2C001E4B08930820FFF7AEF9044610B103A9F7
:104D3C00FFF7C7FE00965FFA8AF34A4641463846AB
:104D4C000994FFF70DFDB8B9039B5B7803F0FF02E4
:104D5C0093B94FF69C7305A903A80592ADF81830CA
:104D6C00FFF718FF05A8FFF782FE05A80999FFF7C2
:104D7C00B1FE06A8FFF7F2FD03A905A8FFF7A1FEF7
:104D8C00059B069A2B606A60002306A80693059380
:104D9C00FFF7E4FD04A8FFF7E1FDABE7294E0B009C
:104DAC00012AF8B5054603D10B6803600020F8BD55
:104DBC00022A10D0032AF9D10468002CF6D004F191
:104DCC001000FFF754FE2046FFF799FD18212046EE
:104DDC00FFF75DF9EAE718200E68FFF754F904466F
:104DEC0050B13146FFF7C6FE3069B6F9147008B100
:104DFC0002F0E2F92061A7822C60D7E738B50023D6
:104E0C0083608B6804460D462BB102229847EB68F1
:104E1C00E360AB68A360204638BD0000F0B589B0F4
:104E2C0004460D4601A81146FFF754FEA4B124B266
:104E3C001DB1284602F0C0F9054601A803A9039547
:104E4C00ADF81040FFF7A6FE03A8FFF710FE02A86E
:104E5C00FFF784FD09B0F0BD019D0123D5E84F2F6C
:104E6C00002A03D1C5E8413F0029F7D1EFD12B73BC
:104E7C00BFF35B8F6B702B1DBFF35B8F53E8006F21
:104E8C0043E80042002AF9D1BFF35B8F002EDED03D
:104E9C002046FFF739FC074660B105F10C0130469E
:104EAC00FFF743FE3046FFF72AFD10213046FFF78F
:104EBC00EEF8CCE7314603A8FFF7A0FF2B7B8DF86B
:104ECC001C301020FFF7DFF80546D0B187601420A6
:104EDC00FFF7D9F8044678B18760014603A8FFF7BD
:104EEC0045FD059BA268A360069B0592E268E36002
:104EFC009DF81C3006922374064BEB60064B2C601D
:104F0C00AB6003A8FFF7FBFC002229460348FFF720
:104F1C0003FCC7E7494B0B002D4F0B00E3480B007C
:104F2C00012A70B5044603D10B680360002070BDE4
:104F3C00022A0CD0032AF9D10468002CF6D02046A2
:104F4C00FFF7DDFC14212046FFF7A1F8EEE7142053
:104F5C000E68FFF798F8054620B13146FFF74EFF73
:104F6C00337C2B742560E1E7002240681146FFF783
:104F7C003FBC002240681146FFF74ABC4068002243
:104F8C00FFF73EBC4068002281F00101FFF728BC0E
:104F9C00002340681A461946FFF71ABC00234068E4
:104FAC001A461946FFF70CBC002240681146FFF761
:104FBC00FFBB002240681146FFF7EABB40680022A5
:104FCC000221FFF7EDBB002340681A46FFF7D8BB60
:104FDC00024B03225A60024A1A60704790E6032083
:104FEC005C750B007047F8B5064615460C468F18D5
:104FFC00BC4206D0336814F8011B9B6830469847B6
:10500C00F6E72846F8BD007C0022FFF755BA007C75
:10501C000021FFF759BA007C0021FFF75DBA007C34
:10502C000021FFF761BA007C0021FFF765BA10B5CB
:10503C0014210446FFF72BF8204610BD38B5044662
:10504C0015464FF47A730022C4E90123094B2174ED
:10505C00084623602946FFF75FFABF3008D16B6919
:10506C00DB0705D56868FFF7F3FBE868FFF7F0FB93
:10507C00204638BD98750B00704710B518210446B2
:10508C00FFF705F8204610BDF0B5037D062B8DB05B
:10509C000E4600F104074FF0000412D000F1080591
:1050AC0015F8011D0A22304601F093FAAF42044470
:1050BC0019D0002CF4D02E21304601F07BFA044498
:1050CC00EEE72F236A4639460A208DF80040FFF799
:1050DC002BFA684602F08DF833680246DB686946A5
:1050EC0030469847044620460DB0F0BD10B5054B30
:1050FC000446112240F8043B002101F0FDFF20463C
:10510C0010BD00BFC0750B000346074A10B543F82D
:10511C00042B01F1100251F8044B43F8044B91425B
:10512C00F9D10A781A7010BDC0750B0010B59DF836
:10513C00084044EA032343EA024242EA01610423A1
:10514C004160037510BD000007B5064B0360CB78BA
:10515C0000938B784A780978FFF7E8FF03B05DF885
:10516C0004FB00BFC0750B0000F11003012213F803
:10517C00101C0129184608D153F8041C02EB4102FB
:10518C00013A03F11003F2D17047022904BF53F81E
:10519C00041C5218F4E70EB4F0B588B000AF07F158
:1051AC003405102155F8042B7A6004462B467818E8
:1051BC00FD60FFF75DFB0F287A681AD900F1080330
:1051CC0023F007036E46ADEB030D411C2B466846DE
:1051DC00FD60FFF74DFB021E04DD236869469B68EA
:1051EC0020469847B5462037BD46BDE8F04003B091
:1051FC0070470028F7D0236802469B6807F110011E
:10520C0020469847EFE738B50B6803604D68436854
:10521C009D42044608D015B16B6801336B60606821
:10522C0008B1FFF775FB656038BD07B503688DF8ED
:10523C0007109B6801220DF10701984703B05DF838
:10524C0004FB0B461146002210B5C0E900220446AF
:10525C0083600BB9204610BDFFF7D5FFFAE78368D2
:10526C00EBB11A78032A1AD8DFE802F00417021BF4
:10527C000520704702685B685268D05C2D2812D0FC
:10528C00A0F13003092B0ED974280ED066280CD04F
:10529C00A0F16E0358425841704706207047002019
:1052AC00704704207047032070470220704710B5E8
:1052BC000446FFF7D4FF02280ED0C31EDBB2012B2D
:1052CC0014D82268A36850685B68BDE810400A22B5
:1052DC000021184402F040B82268A36852685B6849
:1052EC00D05CA0F174035842584110BD0020FCE77B
:1052FC0038B50023C0E9003304460E48C4E9020364
:10530C00A9B10B78032B06D08BB9136858684B687E
:10531C00C35C6E2B07D013684D6858688B682844A3
:10532C005B1BA060E36011462046FFF76CFF204634
:10533C0038BD00BF32760B0038B500250B46C0E9EE
:10534C000055C0E90255C0E90455044611464BB15D
:10535C001A78012A06D103F11002DB6882604361DE
:10536C00FFF751FF204638BD10B54369044663B1C1
:10537C008068E060013B1030A0602061636113B174
:10538C00FFF7F2FEA060012000E0184610BD10B53A
:10539C007D210446FFF749FF01232371204610BDF0
:1053AC0008B50379012B02D0022B04D008BD2C21A7
:1053BC00FFF73BFFFAE73A21FAE710B50446FFF78F
:1053CC00EFFF20467B21FFF730FF0023237120469F
:1053DC0010BD000013B504460191FFF7E1FF2368EF
:1053EC00019ADB6803492046984701232046237124
:1053FC0002B010BDCC750B0013B504460191FFF73C
:10540C00CFFF2368019ADB680349204698470123A4
:10541C002046237102B010BDCF750B002DE9F0476B
:10542C000D46222190460446FFF7FFFEDFF8A490BC
:10543C00A8442F464745BA463DD017F8016B222E9B
:10544C0006D05C2E04D0304601F026FE0028F1D1A7
:10545C002368AAEB05029B682946204698475C21E5
:10546C002046FFF7E2FE0D2E0AD8072E1CD9A6F116
:10547C000803052B18D8DFE803F00D0F11171315CF
:10548C00222E01D05C2E0FD131462046FFF7CDFEE7
:10549C003D46CFE76221F8E77421F6E76E21F4E789
:1054AC006621F2E77221F0E723683246DB68494651
:1054BC0020469847ECE7BD4205D023687A1B9B68D1
:1054CC0029462046984722212046FFF7AEFEBDE82C
:1054DC00F08700BFD2750B0013B50446CDE900214F
:1054EC00FFF75EFF2046DDE90021FFF797FF02235F
:1054FC002046237102B010BD13B50446CDE900213E
:10550C00FFF74EFF2046DDE90021FFF787FF01235F
:10551C002046237102B010BD80680368DB68184711
:10552C007047084611B10B685B68184770477047A5
:10553C0070477047704738B504460D4600682E21F9
:10554C0001F01DFE2368C31A2B6023B1037803B14D
:10555C00013023682060184638BD10B50C21044674
:10556C00FEF795FD204610BD10B504210446FEF74C
:10557C008EFD204610BD10B504210446FEF787FDB4
:10558C00204610BDFEF760BF08B501F002FEB0FA70
:10559C0080F0400908BD704710B50C4601F01CFAAC
:1055AC00844210D001F08AFB844205D101F086FBC5
:1055BC00BDE8104001F0ABB92CB1236820465B6804
:1055CC00BDE81040184710BD0B6803604B68436082
:1055DC0013B15A6801325A60704713B50446084635
:1055EC00019101F006FE01990246204602B0BDE889
:1055FC001040FFF781BF13B504460846019101F036
:10560C00F8FD23680199DB680246204602B0BDE82C
:10561C001040184707B503688DF80710DB680122A6
:10562C000DF10701984703B05DF804FB0EB403B508
:10563C0003AB002153F8042B006A019300F0E7FF41
:10564C0002B05DF804EB03B070470A6802604A6868
:10565C0042600022C0E9022210B502618C688460AD
:10566C00CC68C4600C698A60CA6004610A6110BDB0
:10567C002DE9F74FD0E900844FF0140A00930AFB90
:10568C0004F4184BA41017465C434546002C21DD4E
:10569C0066100AFB06F005EB00093A46B9F804B0AF
:1056AC00285801915F4528BF5A4601F0AAFD0028F1
:1056BC0001994FF001030BD15F4503D1009A137090
:1056CC003446E3E7FCD9A61B09F11405013EF7E7C4
:1056DC00F9DBF5E7A5EB08050248AD10684303B00C
:1056EC00BDE8F08FCDCCCCCC7FB50369057E0191A4
:1056FC0003B3F9B1002600F10C04039603A901A829
:10570C00FFF719FF0146A8B10DF10B03039A8DF8B1
:10571C000B602046FFF7ACFF9DF80B3053B12368AC
:10572C00142404FB0034083434F9023C002BA8BFC9
:10573C00DDB2E3E7284604B070BD000010B5094C9B
:10574C002378BFF35B8FDB0709D42046FEF7AEFC52
:10575C0028B12046FEF7AFFC034801F097FC034844
:10576C0010BD00BF9CE603203B550B00A8E50320B1
:10577C0010B5094C2378BFF35B8FDB0709D42046A7
:10578C00FEF794FC28B12046FEF795FC034801F087
:10579C007DFC034810BD00BFA0E60320A3550B0001
:1057AC00ACE5032038B500250446C0E90055C0E936
:1057BC0004558560856140F8245FFEF735FEFFF7E0
:1057CC00BDFFE061FFF7D4FF25732062204638BD92
:1057DC0010B50A4C2378BFF35B8FDB070CD4204643
:1057EC00FEF764FC40B10648FFF7DCFF2046FEF7ED
:1057FC0062FC044801F04AFC014810BD98E6032005
:10580C00A8E60320315D0B00024A0349034800233C
:10581C00FEF75ABF155B0B00A15A0B00215A0B0067
:10582C0000231A4619461846FEF74EBF37B58D6849
:10583C0004466846FFF7C8FE6A4629462046FFF72D
:10584C007BFD01A8FFF78AF8204603B030BD37B5C1
:10585C00CD6804466846FFF7B7FE6A4629462046DF
:10586C00FFF746FD01A8FFF779F8204603B030BDDD
:10587C0037B50D6904466846FFF7A6FE6A46294609
:10588C002046FFF7DEFC01A8FFF768F8204603B0BE
:10589C0030BD000070B58AB00D46014604A8FFF774
:1058AC00C5FF144E04A8FFF75FFDE8B104A96846D4
:1058BC00FFF7CDFF02983146FFF766FE044610B1A4
:1058CC002C1E18BF012401A8FFF748F8002CE9D0C2
:1058DC0004A96846FFF7CCFF6846FFF7E8FC286090
:1058EC0001A8FFF73BF8DDE705A8FFF737F80AB08A
:1058FC0070BD00BFD8750B0037B50C462046134958
:10590C00154601F046FC50B901F066F84FF41651FB
:10591C0001F052F803B0BDE8304001F05DB80C491D
:10592C00204601F036FC78B94FF4165301A92846ED
:10593C000193FFF7AFFF01F0C1F9019900F0E4FF0B
:10594C0001F0BCF903B030BD0020FBE7DD750B00A6
:10595C00E4750B0070B5D0E900531426044606FB21
:10596C000356AE4205D005F10800FFF7F3FF1435DE
:10597C00F7E72068FEF76CFF204670BD10B50446B3
:10598C000C30FFF7E7FF2046FEF7D6FF204610BD90
:10599C0010B5044B044640F8043BFFF7EFFF2046DC
:1059AC0010BD00BFD4740B0010B50446FFF7F0FF18
:1059BC0020462421FEF76BFB204610BD10B5034B8F
:1059CC0003600446FFF7E4FF204610BD80760B0011
:1059DC0010B50446FFF7F2FF20462421FEF757FBD3
:1059EC00204610BD0022C0E9002210B582600C6870
:1059FC0004604C6844608C680A604A6084608A6009
:105A0C0010BD10B5036804461868FEF725FD204646
:105A1C0010BD00002DE9F04F87B0804603931C4B5E
:105A2C005B68C3F30803894616466BB9FFF7D0FED3
:105A3C00044600F12403406A0593FFF7A3FD237B82
:105A4C002BB105A8FFF7DDFF07B0BDE8F08F0123F0
:105A5C002373D4E900535FFA89F905EB830AAA454D
:105A6C0012D055F8047B3146381DFFF73DFE8145B9
:105A7C00F5D33B68039A0092D3F808B04A463346F4
:105A8C0041463846D847EAE700232373D9E700BFDD
:105A9C0000ED00E02DE9F74F9B461A4B5B68C3F312
:105AAC0008038046894616466BB9FFF791FE0446FB
:105ABC0000F12403406A0193FFF764FD237B2BB1B3
:105ACC0001A8FFF79EFF03B0BDE8F08F01232373FD
:105ADC00D4E90053F6B205EB830A55450ED055F8C0
:105AEC00047B5946381DFFF7FFFD8642F5D33B6812
:105AFC004A46DB68414638469847EEE70023237355
:105B0C00DEE700BF00ED00E02DE9F341164B5B68CA
:105B1C00C3F3080305460F461BBBFFF759FE00F104
:105B2C0024030446406A0193FFF72CFDD4E900637B
:105B3C00462406EB8308B04509D101A8FFF761FFA5
:105B4C00A542B4BF0020012002B0BDE8F08156F898
:105B5C00040B39460430FFF7C7FD8442A8BF044646
:105B6C00E9E70020F0E700BF00ED00E0F8B5D0E970
:105B7C0001539D4204460E460DDB6F1C002F00683E
:105B8C0004DDB900FEF76CFE18B9F8BDFEF760FE37
:105B9C0000202060A7602768626807EB85019200EF
:105BAC00A2EB8502081D01F08DFA47F825606368A9
:105BBC00013363600120E8E737B500F124030446A4
:105BCC00406A01930D46FFF7DDFCD4E9003203EB8C
:105BDC008202934219460BD00968A94203F10403CF
:105BEC00F7D101A8FFF70DFF0025284603B030BD03
:105BFC0029462046FFF7BAFF05460028F1D0636816
:105C0C00012B01D1FFF700FE01A8FFF7FAFEECE72C
:105C1C0070B50446D0E900020B4600EB82028242CA
:105C2C000FD001461D6851F8046BAE4207D1521AD1
:105C3C0001F048FA6368013B6360012070BD0846BF
:105C4C00EDE70020FAE71FB500F124030446406A93
:105C5C0001910393FFF796FC01A92046FFF7D8FFAB
:105C6C0018B163680BB9FFF7DBFD03A8FFF7C9FE9A
:105C7C0004B010BD70B5D0E904561823044603FBDC
:105C8C000656AE4215D005F110012046FFF7C0FFB5
:105C9C0063680BB9FFF7C4FDE06929690368DB6829
:105CAC009847696919B1206A0368DB689847183509
:105CBC00E7E7D4E90453182606FB0356AE4204D09A
:105CCC00284600F0E5FC1835F8E70023636170BD49
:105CDC0073B50446FFF7A4FD04F12403606A019335
:105CEC00FFF750FC2046FFF7C5FF01A8FFF789FE20
:105CFC00606A08B1FEF7A0FBD4E90453182606FB32
:105D0C000356AE4204D0284600F0C2FC1835F8E722
:105D1C002069FEF79DFD2068FEF79AFD204602B033
:105D2C0070BD00000148FFF7D3BF00BFA8E60320F9
:105D3C008842F8B504460D46164615D9904214D241
:105D4C00A2F11406751AA1F114072C44B7421AD00B
:105D5C001CB131462046FFF778FC06F10800FFF72E
:105D6C00F9FD143E143CF1E70DD0B5420BD01CB13B
:105D7C0029462046FFF769FC05F10800FFF7EAFD0C
:105D8C0014351434F1E7F8BD8842F8B504460D46D5
:105D9C00164614D9904213D2A2F11006751AA1F12D
:105DAC0010072C44B74218D01CB13146204600F0E5
:105DBC00EBFC304600F06CFC103E103CF2E70CD0D3
:105DCC00B5420AD01CB12946204600F0DDFC28461D
:105DDC0000F05EFC10351034F2E7F8BD70B50E1E05
:105DEC00054611DD3001FEF72BFD044658B1D5E90F
:105DFC00001201EB0212FFF7C7FF2868FEF728FD1F
:105E0C002C60AE60012070BD0024F6E72DE9F04F48
:105E1C00904695B000230391D8F804100A934622BB
:105E2C009942C0E90033C0E90233C0E90433CDE93B
:105E3C0008330446027623DCD8E90057142303FB0D
:105E4C000757AF423BD029460BA800F09DFC0BA98D
:105E5C000FA8099E00F098FCDDE9091399421BDAA2
:105E6C00089B099A03EB061603EB0212314606F166
:105E7C001000FFF789FFEEB9099B0133099311E07C
:105E8C0008A8FFF7ABFF0028D6D108A8FEF754FDF1
:105E9C00204615B0BDE8F08F013108A8FFF79EFF32
:105EAC000028DDD10FA800F0F3FB0BA800F0F0FBED
:105EBC001435C6E70FA9304600F066FCDCE7002677
:105ECC00CDE90B660D964FF01409DDE908239E42CF
:105EDC007CDA3301D35806930BB90136F5E700236E
:105EEC00079309FB06F302930BAD07A906A8FFF76E
:105EFC0022FB82460028F0D04FF000038DF81730BB
:105F0C000146079A0DF117032846FFF7B1FB9DF8E0
:105F1C0017700190002F4AD1BDF81C30ADF84030FD
:105F2C00CDE911774FF6FF73CDF83CA0ADF84230B8
:105F3C001397D5E90132934217DB03F1010ABAF149
:105F4C00000F30DD09FB0AF0FEF77AFC834660B3E4
:105F5C00D5E9001209FB0212FFF7EAFE2868FEF7EA
:105F6C0077FCC5F800B0C5F808A02B68019A09FBAE
:105F7C00023A6A68514609FB02320AF11400FFF733
:105F8C00D7FEBAF1000F03D00FA95046FFF75DFB07
:105F9C006B6801336B6011A8FFF7DCFC3FB10BA8F9
:105FAC00FFF7D8FC71E7BB46D8E70127F3E7019B65
:105FBC002D6809FB0355069B1B782BB9D8F80030CC
:105FCC00029A13441B7CEB8008358EE72168226013
:105FDC0062686360A36809920A9A0A93E368A260F4
:105FEC000B9A0B932369E2600C9A0C936369226100
:105FFC000D9A0D93039B089162612376CFE7000005
:10600C00F0B5044687B00D46264619466846174635
:10601C00FEF785F90B4B46F8043B694603A8FEF7DF
:10602C007EF903AA39463046FFF7F0FE03A8FEF7C7
:10603C0035F96846FEF732F9034B2360204625629A
:10604C0007B0F0BDD4740B0068760B00F0B50F46AA
:10605C0085B01D490A9C384616461D4601F099F834
:10606C00C0B9A4B1294601A8FFF7BCFC17492420EC
:10607C0000F048FE054630B101AB32462146FFF731
:10608C00BFFF134B2B6001A8FEF708F92C462046E6
:10609C0005B0F0BD0F49384601F07BF890B9002CE3
:1060AC00F5D0294601A8FFF79DFC0849242000F0F3
:1060BC0029FE05460028E6D001AB32462146FFF703
:1060CC009FFFE0E70024E2E7EC750B0078770B000C
:1060DC0080760B00F0750B00014B024A1A6070477A
:1060EC00A4E6032001760B002DE9F047089DD0F8BB
:1060FC00209004460E461746984600F06DFC8145EC
:10610C004CD02B79190704D56A6954492046FFF7FE
:10611C008DFAB8F1000F0DD05B212046FFF77AFA0B
:10612C0041462046FFF767FA23684D49DB68022297
:10613C00204698472B79DA0723D5D5F808802F21EC
:10614C00404601F072F808B100F1010841462046C2
:10615C00FFF751FA2B799B0708D53A212046FFF718
:10616C0059FAEA683F492046FFF760FA2A79236812
:10617C0012F0040FDB6814BF3B493C490222204655
:10618C0098472B7958071DD529690B461A4613F8E1
:10619C00010B60B1202808D11946F7E7344800F00C
:1061AC0066F90028ADD0BDE8F0872828EED1236829
:1061BC00521ADB682046984723682E49DB68042274
:1061CC002046984700213846FEF776FA01462046CD
:1061DC00FFF711FA23682549DB680222204698470D
:1061EC001EB131462046FFF706FA2B7913F0300F1B
:1061FC002CD023682049DB680222204698472B7953
:10620C00D9060AD523681D49DB6807222046984722
:10621C00AA691B492046FFF709FA2B799A0611D572
:10622C00DB0605D523681049DB6802222046984717
:10623C0023681449DB6820460A229847E9692046FE
:10624C00FFF7D9F95D212046FFF7E4F923680E49E1
:10625C00DB6820460222BDE8F047184705760B00A4
:10626C000C760B00CC750B000F760B0014760B0024
:10627C00D0E6032012760B0017760B001A760B0073
:10628C0022760B0025760B0030760B002DE9F043BF
:10629C0085B0D0F820900C9C05460F4690461E46C3
:1062AC0000F09AFB814505D1494800F0E0F8002840
:1062BC0040F08A802B6A474A01924FF0000901A8EE
:1062CC0003938DF80890FFF778F849464046FEF79F
:1062DC00F3F941498046012201A8FFF7FDF8414638
:1062EC00FFF77BF93FB13D49012201A8FFF7F4F814
:1062FC003946FFF772F93EB13949012201A8FFF77F
:10630C00EBF83146FFF769F92379DF070ED5A6685C
:10631C002F21304600F089FF00B1461C3149012283
:10632C0001A8FFF7D9F83146FFF757F923799E07F3
:10633C0007D52D49022201A8FFF7CEF8E168FFF737
:10634C0049F82379580714D5266933461F4613F8A4
:10635C00012B2AB1202A01D11E46F7E7282AF5D1B4
:10636C002249022201A8FFF7B7F8BA1B3146FFF702
:10637C00C3F82379190707D51D49012201A8FFF796
:10638C00ABF86169FFF738F82379DA0608D50422EF
:10639C0018490DEB0200FFF79FF8A169FFF71AF8F7
:1063AC0023799B0607D51449062201A8FFF794F818
:1063BC00E169FFF712F901A8FEF7E9FF286A0F4916
:1063CC0003680222DB68984705B0BDE8F08300BF84
:1063DC00D0E6032050760B00E2750B0033760B00F1
:1063EC00E7770B00A2740B0035760B0038760B00A8
:1063FC00B3740B003B760B0040760B0030760B0031
:10640C00002340681A46FEF7BBB9406800220221FF
:10641C00FEF7C6B9002240681146FEF7B9B9002252
:10642C0040681146FEF7C4B9002340681A46194665
:10643C00FEF7C6B9002340681A461946FEF7C8B9DC
:10644C0040680021FEF7ECB940680021FEF7F0B976
:10645C004068002281F00101FEF7C2B940680022B9
:10646C00FEF7CEB9002240681146FEF7D1B90022E2
:10647C0040681146FEF7BCB92DE9F04395B01446BF
:10648C000D460746FEF732FE00211C220DA8009196
:10649C0000F032FE40230C9320466B460CAA0021E0
:1064AC00FEF752F8044600284BD1024601216868D9
:1064BC00FEF77EF90221804622466868FEF778F9DD
:1064CC00009E81462146002E3BD0002939D17368AD
:1064DC00022B03D00A2B11D0F669F4E7B8F1000FA8
:1064EC00FAD0716906A8043107ADFEF72DFE0FCD69
:1064FC003C1D0FC42B6823704146EDE7B9F1000F2A
:10650C00EAD07469102201A800F0F6FD06238DF87C
:10651C00143001AD04F108031834186859682A4680
:10652C0003C20833A3421546F7D101A906A807AD4B
:10653C00FEF7EAFD0FCD3C1D0FC42B6823704946B6
:10654C00CAE70098FDF7F8FF384615B0BDE8F083B0
:10655C00024B034A1A6000225A607047D0E60320AF
:10656C00C8760B00F8B506460D468F180024BD42C0
:10657C000CD0336815F8011B9B6830469847031EF6
:10658C0001DB1C44F3E7002C08BF1C462046F8BD79
:10659C0013B50446084659B1019100F02AFE236850
:1065AC000199DB680246204602B0BDE8104018474E
:1065BC0002B010BD03689B68184738B50D2105461D
:1065CC00FFF7F8FF0A2104462846FFF7F3FF2044A3
:1065DC0038BD30B58BB00023012A8DF8243098BF1C
:1065EC000A2209AC0D46B1FBF2F101FB125303F088
:1065FC00FF03092B94BF30333733DBB2AA4204F8C4
:10660C00013DEFD92146FFF7C3FF0BB030BD2DE99B
:10661C00F04186B000AF05460E46381D14211446D5
:10662C003B60FEF725F913280ED8391D2846FFF7D5
:10663C00AFFF04461EB12846FFF7BFFF04442046B7
:10664C001837BD46BDE8F08100F1080323F00703BD
:10665C00E846ADEB030D2246411C3B686846FEF74D
:10666C0007F969462846FFF793FF0446C546E1E75C
:10667C00014B00229A607047D8E6032010B50446FF
:10668C0008462170FDF768FF00236360204610BDAB
:10669C0010B504460068FEF7DBF8204610BD10B5B7
:1066AC000446006808B1FEF7D3F80023C4E90133AF
:1066BC00236010BD38B504460D4600680131FEF765
:1066CC00CFF810B1C4E90005012038BD10B503683E
:1066DC00044623B143688B4201D3012010BD2046F0
:1066EC00FFF7E8FF0028F9D0A368002BF5D122684A
:1066FC001370F2E737B50D46114601920446FFF7C9
:10670C00E5FF019A28B92046FFF7C9FF204603B0E0
:10671C0030BDA2602946206800F0C6FC2268A36840
:10672C000021D154F2E7002313B5C0E9003304462D
:10673C008360037341B10846019100F05AFD019941
:10674C0002462046FFF7D6FF204602B010BD38B5F2
:10675C00054600680C4668B16A688B689A4207D394
:10676C00096800F020FDA368AB600023A36038BD6E
:10677C00FEF76EF823682B6063686B60A368AB60F0
:10678C000023C4E90033F1E710B50023C0E900335E
:10679C00044683600373FFF7DAFF204610BD88427E
:1067AC0010B5044605D00B682BB18A681946FFF763
:1067BC00A1FF204610BDFFF772FFFAE710B50023CA
:1067CC000446C0E9003383600373FFF7E8FF2046FB
:1067DC0010BD00000EB470B587B00BAD044655F873
:1067EC00042B01922B46052104A80395FEF740F8D3
:1067FC000B4906462046FFF796FF31462046FFF729
:10680C0065FF206830B1019A03952B46711CFEF789
:10681C002FF8A060204607B0BDE8704003B0704769
:10682C0032760B00054B02221A60054B054A9A6022
:10683C000020C3E90000FDF74FBF00BFF4E60320C2
:10684C00E8E603200000FFFF024B1A68024B1A60B7
:10685C00704700BFB0E50320F8E603207047417491
:10686C00704708B5007CFDF7BFFE20EAE07008BD5C
:10687C0008B5007CFDF790FE20EAE07008BD08B575
:10688C00007CFDF799FE40EAE07008BD08B5007C7D
:10689C00FDF78AFE40EAE07008BD007CFDF794BE6F
:1068AC0037B5457C04462DB1207C03B0BDE83040A3
:1068BC00FDF76ABE007C0191FDF796FE0028019958
:1068CC00F2DC284603B030BD10B514210446FDF7A8
:1068DC00DEFB204610BD000010B54FF47A73044661
:1068EC00084611460022C4E90123044B236001230E
:1068FC0020746374FDF788FE204610BD20770B00D2
:10690C00007C0023FDF778BE0022FFF7F9BF007C66
:10691C00FDF732BE417470477047704708B50021CF
:10692C00007CFDF7A1FE40EAE07008BD08B501212E
:10693C00007CFDF799FE40EAE07008BD08B5007CCC
:10694C00FDF78AFE20EAE07008BD08B5007CFDF773
:10695C007BFE20EAE07008BD13B50446007C019173
:10696C00FDF77AFE0028019901DC607C20B1207CC7
:10697C00FDF782FE20EAE07002B010BD007CFDF74E
:10698C0083BE10B514210446FDF781FB204610BDD3
:10699C0010B54FF47A73044608460021C4E901137C
:1069AC00044B23600123207463741146FDF734FEFD
:1069BC00204610BD50770B00007C0022FDF734BE42
:1069CC00007CFDF739BE10B514220446002100F0FE
:1069DC0093FB204610BD000010B50F4C88B003A8E7
:1069EC00FFF7F1FF2178BFF35B8F11F001010FD19D
:1069FC0020460191FDF75AFB019948B103AA0748BB
:106A0C00FFF7C6FF2046FDF756FB054800F03EFB9E
:106A1C00024808B010BD00BFFCE6032000E70320CD
:106A2C0025690B00014B1860704700BFB4E50320CB
:106A3C0008B50B4B43B1FFF7CFFF03681B699847B1
:106A4C00002801DDAFF30080064B43B100F036F9AE
:106A5C0003681B699847002801DDAFF3008008BD6F
:106A6C00000000000000000008B5FFF7E1FFFDF793
:106A7C000BFD014B186008BD28E703200548064AAA
:106A8C00064908B5121A00F00FFB054B054A1A60AF
:106A9C0008BD00BF00F4032004F4032034790B007C
:106AAC0000F403201E1C279A07B5002300931A46F6
:106ABC006FF07701FDF742FE03B05DF804FB0000B8
:106ACC0007B543880A2B08D0502B0BD1094B1B68F8
:106ADC004BB103B05DF804EB1847FFF7E5FF03B0CB
:106AEC005DF804FB002300931A466FF07701FDF765
:106AFC0025FEF4E718E7032010B512480021FDF736
:106B0C00DFFE114B1A68114B9A42114B0CBF01223C
:106B1C0000221A7001D0FFF7B1FFFDF7A5FC044667
:106B2C0000F0F2FA0B4B13B12046AFF300800021BA
:106B3C000848FDF71DFEBDE8104007480021FDF791
:106B4C00F3BD00BF316A0B0000F403201E1C279A12
:106B5C0014E7032000000000CD6A0B00232813B5B6
:106B6C0002D9002002B010BDA0F10B03022B1AD8E1
:106B7C00174C2178BFF35B8F11F001010BD120462C
:106B8C000191FDF793FA019928B11248FFF776FDB0
:106B9C002046FDF790FA0F4B1878FDF7E5FC00281E
:106BAC00DFD10120DEE7012809D800F047F80021E9
:106BBC00007CFDF7A9FC80F00100C0B2D2E70938D7
:106BCC000128EED800F07AF8007CFDF705FDF2E71D
:106BDC001CE7032020E703200D2810B504469CBFBA
:106BEC000E34A4B22046FFF7B9FF50B10321204662
:106BFC00FDF752FC032804D12046BDE81040FDF7F8
:106C0C0053BC002010BD704738B50A4B03600123FC
:106C1C00044643610849202000F076F82025606086
:106C2C000549A560284600F06FF8C4E90305204625
:106C3C0038BD00BF1800010078770B0030B50E4D41
:106C4C002978BFF35B8F11F0010487B011D128466E
:106C5C00FDF72CFA68B16846FFF7D6FF6A46214665
:106C6C000648FEF7EBF92846FDF725FA044800F034
:106C7C000DFA024807B030BD2CE7032030E70320A3
:106C8C00136C0B007047000038B5044614252A46D7
:106C9C00002100F031FA258040250749258128463E
:106CAC00258200F031F804496060284600F02CF889
:106CBC00E060204638BD00BF78770B0030B50E4D34
:106CCC002978BFF35B8F11F0010487B011D12846EE
:106CDC00FDF7ECF968B101A8FFF7D6FF01AA214630
:106CEC000648FFF7F9FD2846FDF7E5F9044800F0E2
:106CFC00CDF9024807B030BD44E7032048E7032034
:106D0C00916C0B00FDF7BFB9FDF7BFB908B5FDF7E6
:106D1C00B7FD000081F0004102E000BF83F00043AA
:106D2C0030B54FEA41044FEA430594EA050F08BF1A
:106D3C0090EA020F1FBF54EA000C55EA020C7FEADE
:106D4C00645C7FEA655C00F0E2804FEA5454D4EB5B
:106D5C005555B8BF6D420CDD2C4480EA020281EA25
:106D6C00030382EA000083EA010180EA020281EA5D
:106D7C000303362D88BF30BD11F0004F4FEA0131AF
:106D8C004FF4801C4CEA113102D0404261EB4101BE
:106D9C0013F0004F4FEA03334CEA133302D0524244
:106DAC0063EB430394EA050F00F0A780A4F1010400
:106DBC00D5F1200E0DDB02FA0EFC22FA05F280183A
:106DCC0041F1000103FA0EF2801843FA05F3594120
:106DDC000EE0A5F120050EF1200E012A03FA0EFC9F
:106DEC0028BF4CF0020C43FA05F3C01851EBE371C9
:106DFC0001F0004507D54FF0000EDCF1000C7EEBE6
:106E0C0000006EEB0101B1F5801F1BD3B1F5001F23
:106E1C000CD349085FEA30004FEA3C0C04F1010442
:106E2C004FEA445212F5800F80F09A80BCF1004F6B
:106E3C0008BF5FEA500C50F1000041EB045141EAED
:106E4C00050130BD5FEA4C0C404141EB0101013CB6
:106E5C0028BFB1F5801FE9D291F0000F04BF0146A5
:106E6C000020B1FA81F308BF2033A3F10B03B3F177
:106E7C0020020CDA0C3208DD02F1140CC2F10C0207
:106E8C0001FA0CF021FA02F10CE002F11402D8BF65
:106E9C00C2F1200C01FA02F120FA0CFCDCBF41EA31
:106EAC000C019040E41AA2BF01EB0451294330BD00
:106EBC006FEA04041F3C1CDA0C340EDC04F11404DD
:106ECC00C4F1200220FA04F001FA02F340EA0300B4
:106EDC0021FA04F345EA030130BDC4F10C04C4F1FA
:106EEC00200220FA02F001FA04F340EA03002946DA
:106EFC0030BD21FA04F0294630BD94F0000F83F424
:106F0C00801306BF81F480110134013D4EE77FEA06
:106F1C00645C18BF7FEA655C29D094EA050F08BF52
:106F2C0090EA020F05D054EA000C04BF1946104633
:106F3C0030BD91EA030F1EBF0021002030BD5FEA77
:106F4C00545C05D14000494128BF41F0004130BD9F
:106F5C0014F580043CBF01F5801130BD01F00045F3
:106F6C0045F0FE4141F470014FF0000030BD7FEA66
:106F7C00645C1ABF194610467FEA655C1CBF0B4661
:106F8C00024650EA013406BF52EA033591EA030F78
:106F9C0041F4002130BD00BF90F0000F04BF002170
:106FAC00704730B54FF4806404F132044FF00005A3
:106FBC004FF0000150E700BF90F0000F04BF00211C
:106FCC00704730B54FF4806404F1320410F0004582
:106FDC0048BF40424FF000013EE700BF42004FEA7D
:106FEC00E2014FEA31014FEA02701FBF12F07F43FA
:106FFC0093F07F4F81F06051704732F07F4208BFB1
:10700C00704793F07F4F04BF41F40021704730B5B7
:10701C004FF4607401F0004521F000411CE700BF03
:10702C0050EA010208BF704730B54FF000050AE086
:10703C0050EA010208BF704730B511F0004502D587
:10704C00404261EB41014FF4806404F132045FEA89
:10705C00915C3FF4D8AE4FF003025FEADC0C18BF32
:10706C0003325FEADC0C18BF033202EBDC02C2F124
:10707C00200300FA03FC20FA02F001FA03FE40EAB6
:10708C000E0021FA02F11444BDE600BF00230146B4
:10709C001A46184600F06AB9024B1844407800F0C2
:1070AC0097007047E9770B000A44914200F1FF33D7
:1070BC0000D1704710B511F8014B03F8014F914204
:1070CC00F9D110BD884210B501EB020402D98442FB
:1070DC00234607D8431EA14208D011F8012B03F810
:1070EC00012FF8E7024401468A4200D110BD13F883
:1070FC00014D02F8014DF7E702440346934200D1DB
:10710C00704703F8011BF9E738B5104B1D68AB6BE2
:10711C000446B3B91820FDF793FB0246A86320B9C7
:10712C000B4B0C484221FDF7C3FB0B490B4BC0E941
:10713C0000130B4B83600B23838100210120C2E9D8
:10714C000401AB6B00221C615A6138BDB4E503200D
:10715C0079770B0090770B000E33CDAB34126DE6C4
:10716C00ECDE0500C9B2034610F8012B1AB18A42B5
:10717C00F9D118467047002918BF0023F9E710B55C
:10718C000446FFF7EFFF18B9204600F032F8204410
:10719C0010BD10F8012B11F8013B012A28BF9A42AF
:1071AC00F7D0D01A7047034611F8012B03F8012BC6
:1071BC00002AF9D170470000024B0146186800F014
:1071CC0003B800BFB4E5032037B5044608460D46A6
:1071DC0000F00FF8421C114620460192FDF758FBB7
:1071EC00044618B1019A2946FFF75EFF204603B00A
:1071FC0030BD034613F8012B002AFBD1181A0138B5
:10720C00704710B57AB103460139841813F8010B95
:10721C0011F8012F904201D1A34201D1801A10BD67
:10722C000028F3D1FAE71046F9E738B503460C46C7
:10723C0069B9BDE83840FFF795BF431C05462146A8
:10724C001846FFF78FFF0028F7D1284638BD0025D8
:10725C00F5E70000012B2DE9F04701D0242B06D9CE
:10726C00FDF71EFB162303600020BDE8F087DFF856
:10727C00E4C00D462E4615F8014B14F80C7017F0AF
:10728C000807F7D12D2C32D12C780127B51C002BF7
:10729C005BD0102B09D1302C07D12C7804F0DF04F3
:1072AC00582C4DD16C781023023507F1004808F1A9
:1072BC00FF384FF0000CB8FBF3F9664603FB198A54
:1072CC00A4F1300EBEF1090F16D87446A34224DD8A
:1072DC00BCF1000F1EDBB1451CD301D1A24519DB5B
:1072EC0006FB03464FF0010C15F8014BE8E72B2C7D
:1072FC0004BF2C78B51CCAE7A4F1410EBEF1190FDE
:10730C0001D8373CE2E7A4F1610EBEF1190F04D8A5
:10731C00573CDBE74FF0FF3CE6E7BCF1000F05DA2A
:10732C0022230360464642B930469EE707B17642B7
:10733C00002AF9D0BCF1000F00D0691E1160F3E7F0
:10734C003024002BB1D10823AFE7302CA5D00A2371
:10735C00ABE700BFEA770B0013460A46014602482A
:10736C000068FFF777BF00BFB4E503202DE9F843B1
:10737C00DFF8B8800646D8F800001F460D46914647
:10738C0000F056F8254B1C6834B9254C1C60254B75
:10739C0013B11B68C4F8883063681F2B07DDD8F85D
:1073AC00000000F047F84FF0FF30BDE8F8834EB313
:1073BC00D4F8880088B91C4B23B9D8F8000000F029
:1073CC0038F8F0E74FF48470FDF73AFA0028F4D05F
:1073DC000023C0E94033C4F88800636840F8239068
:1073EC0001229A4000EB8301D0F800311343C0F81E
:1073FC000031022EC1F8807002BFD0F80431134363
:10740C00C0F804316368D8F800005A1C023362607B
:10741C0044F8235000F00EF80020C6E7E8E70320FC
:10742C005CE70320000000004D480B0018E6032029
:10743C0070477047704700001D400B0059400B000F
:10744C0081400B0085400B000000000043616C6C18
:10745C00206F6E2070757265207669727475616C20
:10746C00004176657261676520616E616C6F6720A3
:10747C0072656164696E67200025322E660054685F
:10748C0065726D6973746F72207265736973746160
:10749C006E6365200025660074656D70657261749D
:1074AC007572654576656E74006E6F7420636C6FD3
:1074BC00756420636F6E6E65637465640000000014
:1074CC0000000000000000000000000000000000B0
:1074DC00A1400B00C9400B000000000000000000A0
:1074EC00D5400B0009410B00F5600B00CB400B00A5
:1074FC0000000000000000000B4A0B00014A0B00CA
:10750C00F7490B00AD490B00EB490B00DF490B00B1
:10751C004D640B0055640B00D3490B00CB490B0099
:10752C00C1490B00B7490B0085640B00000000003B
:10753C0000000000454A0B004B4A0B00894A0B0027
:10754C00594A0B00474A0B000000000000000000E5
:10755C00D34F0B00C94F0B00BF4F0B00B54F0B00A7
:10756C00A94F0B009D4F0B004D640B0055640B0095
:10757C00914F0B00894F0B007F4F0B00754F0B0089
:10758C0085640B000000000000000000F14F0B00B0
:10759C003B500B0013500B00F34F0B001B500B0018
:1075AC0023500B002B500B0033500B00000000003D
:1075BC000000000095500B0085500B0087500B000D
:1075CC00256400257500752530347800626175647A
:1075DC000053657269616C0053657269616C3100AE
:1075EC004A534F4E53747265616D4C6F6748616EB0
:1075FC00646C65720061707000253031307520004C
:10760C005D20002C200028293A2000205B00636FAD
:10761C006465203D200025690064657461696C73A4
:10762C00203D20000D0A006D006C6E00666E00633C
:10763C006F64650064657461696C00000000000093
:10764C000000000041550B0067550B0025550B0041
:10765C00A3510B0000000000000000009D590B001E
:10766C00B5590B00F5600B00CB400B00000000007F
:10767C0000000000C9590B00DD590B0099620B008A
:10768C002D550B0000000000000000003F550B00C2
:10769C0075550B0059600B002F550B0000000000B6
:1076AC00000000003D550B0083550B0005590B00E5
:1076BC00A5550B0000000000000000000D640B003D
:1076CC0017640B0021640B002B640B0035640B005A
:1076DC0041640B004D640B0055640B005D640B00A2
:1076EC0069640B0071640B007B640B0085640B00F8
:1076FC0025592D256D2D25645425483A254D3A25BF
:10770C0053257A0061736374696D65000000000095
:10771C000000000069680B00D5680B00AD680B0019
:10772C0071650B007D680B0099680B008B680B0072
:10773C00A7680B006B680B006F680B000000000063
:10774C000000000027690B008F690B0065690B00B6
:10775C0071650B0057690B0029690B0039690B0027
:10776C0089690B0049690B0021690B0000524545E2
:10777C004E54206D616C6C6F63207375636365652B
:10778C00646564002F746D702F6A656E6B696E731F
:10779C002D4743432D31302D706970656C696E65D2
:1077AC002D34385F32303230313132345F31363053
:1077BC00363138303633392F7372632F6E65776CF0
:1077CC0069622F6E65776C69622F6C6962632F73C7
:1077DC0074646C69622F72616E642E6300002020E9
:1077EC002020202020202028282828282020202065
:1077FC002020202020202020202020202020881025
:10780C001010101010101010101010101010040484
:10781C00040404040404040410101010101010418B
:10782C0041414141410101010101010101010101FC
:10783C000101010101010101011010101010104291
:10784C0042424242420202020202020202020202CC
:10785C0002020202020202020210101010200000AA
:10786C00000000000000000000000000000000000C
:10787C0000000000000000000000000000000000FC
:10788C0000000000000000000000000000000000EC
:10789C0000000000000000000000000000000000DC
:1078AC0000000000000000000000000000000000CC
:1078BC0000000000000000000000000000000000BC
:1078CC0000000000000000000000000000000000AC
:1078DC00000000000000000000000000000000009C
:1078EC0091430B009D490B00154A0B00DD4F0B001B
:1078FC00E5600B005D650B007D660B0031680B00CD
:04790C0055680B00AF
:10791000040000001400000003000000474E550062
:107920003CA9C6B29DDAFE8C2CEC555D999A353295
:04793000FDB5EF7042
:04793400000000004F
:10793800307500000000000098760B00B0760B0050
:1079480010770B00B8E503200000000000000000DD
:10795800000000000000000000000000000000001F
:10796800000000000000000000000000000000000F
:1079780000000000000000000000000000000000FF
:1079880000000000000000000000000000000000EF
:1079980000000000000000000000000000000000DF
:0C79A8000000000000000000ECE70320DD
:1079B400FFFFFFFF00000102030405060708090A90
:1079C4000B0C0D0E0F101112131415161718191A8B
:0879D4001B1C1D1E1F202800D2
:0479DC007856341293
:04000003B000401CED
:00000001FF
